:020000040800F2
:10000000884A0020990100080D1E00080F1E0008F4
:10001000111E0008131E0008151E00080000000035
:1000200000000000000000000000000001010008C6
:10003000171E00080000000045010008191E0008F6
:10004000B3010008B3010008B3010008B3010008C0
:10005000B3010008B3010008B3010008B3010008B0
:10006000B3010008B3010008B3010008B3010008A0
:10007000B3010008B3010008B3010008B301000890
:10008000B3010008B3010008B3010008B301000880
:10009000B3010008B3010008B3010008B301000870
:1000A000B3010008B3010008B3010008B301000860
:1000B000B3010008B301000893380008B301000839
:1000C000B3010008B3010008B3010008B301000840
:1000D000B3010008D32E00088F310008B3010008D7
:1000E000B3010008B3010008B3010008DFF80CD029
:1000F00006F010F800480047FD1C0008884A002060
:10010000224B19680868B0E8F00F80F30988BFF344
:100110006F8F4FF0000080F311884EF00D0E704786
:100120000000000006480068006880F3088862B696
:1001300061B6BFF34F8FBFF36F8F00DF00BF00BF0B
:1001400008ED00E0EFF30980BFF36F8F0F4B1A68E3
:1001500020E9F00F106008B54FF0500080F31188CF
:10016000BFF34F8FBFF36F8F04F07DFB4FF00000A4
:1001700080F31188BDE8084019680868B0E8F00FFE
:1001800080F30988BFF36F8F704700BF8C00002099
:10019000EFF3058070470000064880470648004797
:1001A000FEE7FEE7FEE7FEE7FEE7FEE7FEE7FEE727
:1001B000FEE7FEE75D020008ED0000080CB5002236
:1001C0004C4800920192016841F4803101604FF483
:1001D000A063016801F4003101910099491C00916C
:1001E000019911B900999942F3D10168890333D576
:1001F0000121019140490A6842F010020A600A6830
:1002000022F003020A600A6842F002020A604168B2
:10021000416041684160416841F4806141604168EA
:1002200021F47C114160416841F4E81141600168AA
:1002300041F08071016001688901FCD5416821F0BD
:1002400003014160416841F0020141604168C1F32E
:1002500081010229FAD10CBD01920CBD254810B5CF
:10026000016841F0010101604168244A1140416088
:100270000168234A11400160016821F48021016076
:10028000416821F4FE0141604FF41F018160FFF7D6
:1002900095FF1C494FF00060086010BD154A10B56D
:1002A0005068194B10F00C01184803D0042901D0F4
:1002B000082901D0036012E05168536801F47011FD
:1002C0004FF0020413F4803F04EB914102D05368D5
:1002D0009B0301D50E4B00E00B4B59430160516865
:1002E0000A4AC1F30311121D515C0268CA40026040
:1002F00010BD000000100240002002400000FFF886
:10030000FFFFF6FE08ED00E000127A00000000207A
:1003100000093D002849084328490860704730B566
:100320000F23C27801780125F2B1244A126801F145
:10033000E02102F4E062C2F5E062120AC2F10404B4
:10034000D3404278A24084781C401443220181F8B3
:100350000024007800F01F018D404009800000F16A
:10036000E020C0F8005130BD01F01F008540480971
:10037000800000F1E020C0F8805130BD104A1140EB
:1003800001430E48001F016070470C4A121D0029EE
:10039000116801D0014300E08143116070474FF0C4
:1003A000E0210428086903D020F0040008617047A8
:1003B00040F00400FAE700000000FA050CED00E050
:1003C00080FFFF1FC54910B5884202D101214415A5
:1003D0000AE0C349884202D10121041504E0C14961
:1003E00088420AD10121CC03204600F0B8FC204607
:1003F000BDE81040002100F0B2BC10BD10B542684D
:10040000B94B0C791A400B6842EA0422134343604B
:100410008268B64B1A40D1E9024323434C7942EA41
:10042000440213438360C26A097C22F47002491EAD
:10043000C9B242EA0151C16210BD002101600171DF
:1004400041718160C1600121017470470029816898
:1004500002D041F0010101E021F00101816070470B
:100460000029816802D041F4807101E021F480719B
:1004700081607047002A4268C9B201D00A4300E097
:100480008A4342607047816841F00801816070478B
:10049000014600208968090700D50120704781685E
:1004A00041F00401816070470146002089684907D6
:1004B00000D5012070470029816802D041F4A001D5
:1004C00001E021F4A00181607047014600208968A5
:1004D000490200D5012070474268491E22F460425B
:1004E00042EA4131416070470029416802D041F43D
:1004F000006101E021F400614160704770B507269A
:1005000009290AD9C568A1F10A0404EB4404A640EC
:10051000B543A3401D43C56007E0056901EB4104F5
:10052000A640B543A3401D4305611F23072A09D2F6
:10053000446B521E02EB820293409C4391400C4359
:10054000446370BD0D2A09D2046BD21F02EB8202F4
:1005500093409C4391400C43046370BDC46A0D3AC0
:1005600002EB820293409C4391400C43C46270BDF5
:100570000029816802D041F4801101E021F480114A
:1005800081607047C06C80B2704754484C3000683E
:1005900070470029416802D041F4806101E021F4F4
:1005A0008061416070470029416802D041F4805168
:1005B00001E021F4805141607047826822F4E042FA
:1005C0000A43826070470029816802D041F40041EB
:1005D00001E021F40041816070470029816802D068
:1005E00041F4021101E021F40211816070470146DB
:1005F00000208968890200D50120704770B5072660
:1006000009290AD9C568A1F10A0404EB4404A640EB
:10061000B543A3401D43C56007E0056901EB4104F4
:10062000A640B543A3401D430561836BC3F301544A
:10063000121B921C02EB82021F249440A3439140A0
:100640000B43836370BD826B491E22F4401242EA61
:1006500001518163704708B508440090026008BDED
:1006600008B5084428300090006880B208BD426890
:100670001F4B1A400A4342607047416282627047D2
:10068000426822F01F020A43426070471349083152
:100690000028086802D040F4000001E020F40000C7
:1006A000086070470246002012680A4200D001200C
:1006B0007047C9430160704710B502460020546876
:1006C0000B0AC9B20C401168194202D0002C00D0AC
:1006D000012010BD6FEA1121016070470024014024
:1006E00000280140003C0140FFFEF0FFFDF7F1FF54
:1006F000FFFD3FFF01684FF6FE72114001600021CF
:10070000016041608160C1606A496A4A083990426B
:1007100003D1486840F00F0006E0664A1432904268
:1007200004D1486840F0F00048607047614A2832C0
:10073000904203D1486840F47060F5E75D4A3C326E
:10074000904203D1486840F47040EDE7594A503276
:10075000904203D1486840F47020E5E7554A64327E
:10076000904203D1486840F47000DDE7514A783286
:10077000904203D1486840F07060D5E74E4A111F9F
:10078000904203D1086840F00F0006E04A4A143254
:10079000904204D1086840F0F00008607047464A73
:1007A0002832904203D1086840F47060F5E7424A6D
:1007B0003C32904203D1086840F47040EDE73E4A75
:1007C00050329042EAD1086840F47020E5E730B535
:1007D000026847F6F0739A430C6A8B682343D1E9A9
:1007E00004452C4323438C692343CC6923434C6A3F
:1007F00023438C6A234313430360CA6842600A6838
:1008000082604968C16030BD002101604160816043
:10081000C160016141618161C161016241628162C6
:1008200070470029016802D041F0010102E04FF653
:10083000FE72114001607047002A026801D00A432D
:1008400000E08A430260704741607047406880B2B0
:10085000704702460020D10002D51749083901E04F
:10086000144908390968114200D001207047C100BD
:1008700003D51149091F086070470E4908394860BF
:10088000704702460020D10002D50B49083901E02B
:10089000084908390968114200D001207047C10099
:1008A00003D50549091F08607047024908394860A7
:1008B0007047000008000240080402408F4910B54C
:1008C000884206D10121042000F049FA00210420C9
:1008D0003BE08B49884206D10121082000F03FFA15
:1008E0000021082031E08749884206D101211020EB
:1008F00000F035FA0021102027E08349884206D114
:100900000121202000F02BFA002120201DE07F494A
:10091000884206D10121402000F021FA0021402028
:1009200013E07B49884206D10121802000F017FAAC
:100930000021802009E0774988420AD184150121ED
:10094000204600F00CFA00212046BDE8104000F0DF
:1009500006BA10BD10B50121084600F000FA0021CA
:10096000BDE81040012000F0FAB9F0B5CC780022C3
:1009700004F00F03E40601D58C7823430C784FF084
:100980000F0C14F0FF0F4FF0010E1BD005680E88FE
:100990000EFA02F42640A64210D196000CFA06F791
:1009A00025EA070703FA06F5CE783D43282E02D044
:1009B000482E02D002E0446100E00461521C082A83
:1009C000E5D305600A88FF2A1CD94468002202F199
:1009D00008060EFA06F50E882E40AE420ED196009D
:1009E0000CFA06F7BC4303FA06F7CE783C43282EF0
:1009F00000D14561CE78482E00D10561521C082AED
:100A0000E5D34460F0BD4FF6FF7101800221817093
:100A10000421C17070470246002092680A4200D04B
:100A200001207047806880B2704702460020D2687B
:100A30000A4200D001207047C06880B2704701614F
:100A40007047416170470AB1016170474161704769
:100A5000C160704741F48032826181618261816945
:100A6000806970472C4B10B51A684FF6807422408D
:100A700042EA00100843186010BD2849C861704759
:100A8000F0B5254C002801DAE36900E06368450D04
:100A90002E0185B2C0F30157B540C0F30342032FC6
:100AA00005D0C6020AD503269640B34307E023F0DB
:100AB0007062636823F07063636002E0AB4343F0ED
:100AC000706201B12A43002801DAE261F0BD626080
:100AD000F0BD10B58A0721F003040F49120F21441D
:100AE0000F238C6893409C438C608B689040034339
:100AF0008B6010BD0949C1F8DC0070470008014057
:100B0000000C014000100140001401400018014099
:100B1000001C014000200140000001400000204274
:100B2000A548016841F0010101604168A34A1140F4
:100B300041600168A24A11400160016821F48021EE
:100B40000160416821F4FE0141604FF41F018160A2
:100B5000704799490A6822F480320A600A6822F4D0
:100B600080220A60B0F5803F07D0B0F5802F03D116
:100B7000086840F4A02008607047086840F480309E
:100B8000F9E70346002059098B4A01290AD00229B6
:100B90000AD0516A03F01F02012393400B4200D098
:100BA000012070471168F5E7116AF3E718B50020D6
:100BB0004FF4A06400903120FFF7E3FF0099491C37
:100BC0000091A14201D00028F5D03120FFF7D9FFD4
:100BD000002800D0012018BD774A116821F0F801E3
:100BE00041EAC00010607047764908607047724B58
:100BF0005A68084322F47C121043586070477149C8
:100C0000086670476C4A516821F003010143516046
:100C100070476948406800F00C007047664A5168A8
:100C200021F0F001014351607047634A516821F49B
:100C3000E0610143516070475F4A516821F460519F
:100C400041EAC000506070475B4A0029517A01D0E8
:100C5000014300E08143517270475A49C1F8D800FE
:100C60007047554A516821F4404101435160704733
:100C70005149002281F8202081F82020012802D04B
:100C8000042802D1052081F8200070474E490860F1
:100C9000704749490A6A02430A6270474A4944391F
:100CA0000860704730B5444A5168484B11F00C0158
:100CB00003D0042901D0082901D0036012E0516853
:100CC000536801F470114FF0020413F4803F04EBF9
:100CD000914102D053689B0301D53D4B00E03B4B53
:100CE0005943016051680F2303EA1111394B5C5CD1
:100CF0000168E14041605468072505EA14241C5D41
:100D000021FA04F48460546805EAD4241B5DD940B8
:100D1000C1605268032303EA92322E4B1B1F9A5C78
:100D2000B1FBF2F1016130BD234A0029516901D0C4
:100D3000014300E08143516170471F4A00299169D6
:100D400001D0014300E08143916170471A4A0029B4
:100D5000D16901D0014300E08143D1617047164A57
:100D60000029D16801D0014300E08143D160704780
:100D7000114A0029116901D0014300E0814311614A
:100D8000704711494039086070470E49C864704780
:100D90000949C87170470848416A41F08071416251
:100DA0007047054A0146002092680A4200D001209F
:100DB0007047014988727047001002400000FFF838
:100DC000FFFFF6FE000042428004424200127A0019
:100DD00000093D0018000020F94910B5884202D1F1
:100DE0000121C41486E0B0F1804F09D0F549884252
:100DF0000DD101210220FFF7BBFF0021022064E09A
:100E000001210846FFF7B4FF002101205DE0EE4913
:100E1000884206D101210420FFF7AAFF0021042007
:100E200053E0EA49884206D101210820FFF7A0FFDC
:100E30000021082049E0E649884206D1012110201E
:100E4000FFF796FF002110203FE0E249884206D1DB
:100E500001212020FFF78CFF0021202035E0DE4912
:100E6000884202D10121441444E0DC49884202D185
:100E70000121CC043EE0DA49884202D101210C056F
:100E800038E0D849884202D101214C0532E0D649E8
:100E9000884206D101214020FFF76AFF002140204F
:100EA00013E0D249884206D101218020FFF760FF7C
:100EB0000021802009E0CE4988420AD18415012111
:100EC0002046FFF755FF00212046BDE81040FFF700
:100ED0004FBFC849884202D101210C040AE0C6492B
:100EE000884202D101214C0404E0C44988420AD15D
:100EF00001218C042046FFF732FF2046BDE8104058
:100F00000021FFF72CBF10BD30B50288AC4CB24DAC
:100F1000A0420DD0A8420BD0B0F1804F08D0A94B11
:100F2000984205D0A84B984202D0A84B984203D1D2
:100F300022F070034A881A43A54B984206D0A54B6D
:100F4000984203D022F44073CA881A4302808A88E8
:100F500082850A880285A0420AD0A84208D0A54A04
:100F6000904205D0A44A904202D0A44A904201D1B6
:100F7000097A01860121818230BD30B5028C22F0D0
:100F800001020284028C8388048B22F0020224F086
:100F900073050C882C430D8915434A882A43884DD4
:100FA000A8420BD08C4DA84208D0924DA84205D043
:100FB000914DA84202D0914DA8420DD122F00805D2
:100FC0004A8923F440732A4322F004058A882A437D
:100FD0008D891D43CB892B4383800483C9888186F7
:100FE000028430BD70B5028C22F010020284028CA3
:100FF0008388048B0D8824F4E6464FF6FF7404EAD8
:10100000052535430E8922F0200204EA0616164310
:101010004A8804EA02123243694EB04202D06E4E50
:10102000B04215D122F080064A8923F4406304EAD5
:101030000212324322F040068A8804EA0212324346
:101040008E8904EA86061E43CB8904EA8303334370
:1010500083800583C9880187028470BD70B5028CC6
:1010600022F480720284028C8388848B0D8824F0A1
:10107000730425430E894FF6FF7422F4007204EACC
:10108000062616434A8804EA022232434C4EB042F6
:1010900002D0514EB04215D122F400664A8923F4A1
:1010A000405304EA0222324322F480668A8804EA2A
:1010B000022232438E8904EA06161E43CB8904EAD3
:1010C0000313334383808583C9888187028470BD7D
:1010D00070B5028C22F480520284058C8288838B46
:1010E0000C8823F4E6464FF6FF7303EA04243443E6
:1010F00025F400560D8903EA053535434E8803EA89
:1011000006362E432E4DA84202D0334DA84205D1BB
:1011100022F480458A8903EA82122A4382808483EA
:10112000C988A0F84010068470BD828B22F440620A
:101130008283828B4FF6FF7303EA01210A43828385
:101140007047828B22F00C028283828B0A43828357
:101150007047028B22F440620283028B4FF6FF73CA
:1011600003EA01210A4302837047F0B5048C24F09E
:1011700010040484078B048C4FF6FF7527F4734723
:1011800005EA03333B4305EA02221A430C4B05EA06
:10119000011698420ED0104B98420BD0B0F1804F00
:1011A00008D0084B984205D0074B984202D0074B15
:1011B000984225D124F02001314341F0100124E070
:1011C000002C01400004004000080040000C0040DA
:1011D000001000400014004000340140004C014069
:1011E000005001400054014000180040001C004025
:1011F0000020004000400140004401400048014000
:1012000024F0A0030B4343F0100102830184F0BDDE
:10121000028B22F00C020283028B0A430283704786
:1012200070B5048C24F001040484058B048C4FF603
:10123000FF7606EA0313134325F0F305F84A2B4320
:1012400090420ED0F74A90420BD0B0F1804F08D0B8
:10125000F54A904205D0F54A904202D0F44A9042B5
:1012600002D124F0020201E024F00A020A4342F013
:1012700001010383018470BD2DE9F84F0D4604463A
:101280000888E74FDFF89CC3DFF89C83DFF89C9366
:101290004988AA882B894FF0804A48B304282FD068
:1012A0004FF6FF760828934632D0208C9E4620F4D5
:1012B00080502084A38B208C06EA0132009223F414
:1012C000734306EA0B221A4306EA0E331343BC4269
:1012D0000AD0644508D0544506D0444504D04C4556
:1012E00002D0D34A944242D120F40050009940E009
:1012F0002046FFF795FFE9882046BDE8F84F87E7CD
:101300002046FFF732FFE9882046BDE8F84F20E786
:10131000208C20F480702084B4F81CE0208C06EA35
:10132000031306EA01222EF0F30E43EA0B0343EA0D
:101330000E030092BC420AD0644508D0544506D042
:10134000444504D04C4502D0B94A944203D120F41C
:101350000070009901E020F42060084340F48070A0
:10136000A3832084E9882046BDE8F84FE9E620F40D
:101370000240084340F48050A3832084E98820463B
:10138000BDE8F84FD1E62DE9F0410C46002649882A
:101390000746012501B90226A288012A00D10225AB
:1013A000208823890028384610D0FFF7DEFEE18828
:1013B0003846FFF7CEFE23892A4631463846FFF7E6
:1013C0002FFFE1883846BDE8F04121E7FFF728FF0D
:1013D000E1883846FFF71CFF23892A463146384604
:1013E000FFF7C3FEE1883846BDE8F041B1E610B52D
:1013F0000A884B88CC881A438B8823431A430B896D
:101400001A434B8989891A430A43A0F8442010BD26
:101410004FF6FF71818000210180C18041800172FF
:1014200070470021018041808180C180018141811C
:101430008181C18170470021018041800122828029
:10144000C180018170470021018041808180C1807D
:1014500001814181818170470029018802D041F0DA
:10146000010101E021F0010101807047002930F8FD
:10147000441F02D041F4004101E0C1F30E0101809C
:101480007047002A828901D00A4300E08A438281A2
:101490007047818270471143A0F848107047002AB6
:1014A000828901D00A4300E08A4382817047018922
:1014B00021F0070101817047028922F070020A437E
:1014C0000281704700B50346FFF7F6FF188940F028
:1014D0000700188100BD70B516460D466029044608
:1014E0004FF0010231460AD0FFF79AFE2946204606
:1014F000FFF7E2FF208940F00700208170BDFFF771
:1015000034FEF3E730B504894FF6FF7505EA03238F
:101510001343E4B20B432343038130BD10B50446AB
:10152000FFF7F0FF208940F07700208110BD10B553
:101530000446FFF7E7FF208940F48040208110BD7A
:10154000018582827047028822F070020A4302807D
:10155000704770B50589048B068C25F007050D438F
:101560004FF6FC410C4040F201110C434FF6FF7165
:1015700001EA031126F02206114331430581048359
:10158000018470BD028B22F070020A43028370470F
:10159000028B4FF6FF7322F4E04203EA012111436C
:1015A00001837047828B22F070020A438283704766
:1015B000828B4FF6FF7322F4E04203EA01211143CC
:1015C000818370470029018802D041F0800101E049
:1015D00021F08001018070470029818802D041F00C
:1015E000040101E021F00401818070470029818815
:1015F00002D041F0080101E021F00801818070472C
:101600000029818802D041F0010101E021F00101AF
:1016100081807047028B22F008020A4302837047E0
:10162000002C01400034014000040040000800404C
:10163000000C0040028B4FF6FF7322F4006203EAB5
:10164000012111430183EAE7828B22F008020A4359
:101650008283E4E7828B4FF6FF7322F4006203EA91
:10166000012111438183DAE7028B22F004020A434D
:101670000283D4E7028B4FF6FF7322F4806203EA01
:10168000012111430183CAE7828B22F004020A433D
:101690008283C4E7828B4FF6FF7322F4806203EAF1
:1016A000012111438183BAE7028B22F080020A43B1
:1016B0000283B4E7028B4FF6FF73C2F30E0203EA14
:1016C000012111430183AAE7828B22F080020A43A1
:1016D0008283A4E7828B4FF6FF73C2F30E0203EA04
:1016E0000121114381839AE7028C22F002020A430E
:1016F000028494E7028C22F008020A4302848EE7F7
:10170000028C4FF6FF7322F0200203EA011111430D
:10171000018484E7028C4FF6FF7322F0800203EA13
:101720000111114301847AE7028C4FF6FF7322F412
:10173000007203EA01211143018470E7028C4FF625
:10174000FF7322F4006203EA01211143018466E77A
:10175000028C4FF6FF7322F4005203EA0131114369
:1017600001845CE710B50123048C8B409C43048406
:10177000038C8A401343038410BD10B50423048CEA
:101780008B409C430484038C8A401343038410BD24
:1017900030B50124058C00F118038C40A543058465
:1017A00089B108290FD0091FC1F34E001844016800
:1017B00021F4E041016001684FF6FF7303EA022261
:1017C0001143016030BD03EB5100016821F070014D
:1017D00001600168F4E70029018802D041F00201AC
:1017E00001E021F00201018019E70029018802D0FF
:1017F00041F0040101E021F0040101800FE700291C
:10180000818802D041F0800101E021F080018180D7
:1018100005E7028822F00802028002880A4302805B
:10182000FDE6828822F07002828082880A438280EC
:10183000F5E6028922F00702028102890A43028149
:10184000EDE6028922F08002028102890A430281C8
:10185000E5E68184E3E68185E1E68186DFE60187CE
:10186000DDE68187DBE6A0F84010D8E6028822F4A6
:101870004072028002880A430280D0E6808ECEE663
:10188000008FCCE6808FCAE6B0F84000C7E6808CB7
:10189000C5E6008DC3E602460020128A0A4200D047
:1018A0000120BCE6C9430182B9E602460020138A42
:1018B00092890B4202EA010202D0002A00D00120E4
:1018C000ADE6C9430182AAE6C44910B588420AD1EF
:1018D00001218C032046FFF742FA2046BDE8104064
:1018E0000021FFF73CBABE49884202D101214C04D5
:1018F00010E0BC49884202D101218C040AE0BA49B7
:10190000884202D10121CC0404E0B84988420AD1BE
:1019100001210C052046FFF72BFA2046BDE81040B8
:101920000021FFF725BA10BD30B50446008A85B006
:101930000D464CF6FF710840E98801432182A089D9
:101940004EF6F3110840A9882A8911436A89024397
:101950001143A181A08A4FF6FF410840A9890143A4
:10196000A1826846FFF79EF99C48844201D1039802
:1019700000E00298A189090400EBC00101EB00100E
:10198000296801D5490000E08900B0FBF1F064222C
:10199000B0FBF2F109010B096FF018056B4300EB86
:1019A0008300A3891D044FF0320306D503EBC0006A
:1019B000B0FBF2F000F0070005E003EB0010B0FB15
:1019C000F2F000F00F000843208105B030BD4FF465
:1019D0001651016000218180C18001810C22428169
:1019E0008181704710B5028A4FF2FF031A400B88BD
:1019F0004C8823438C88C9880C43234313430382B8
:101A000010BD0021018041808180C1807047002984
:101A1000818902D041F4005101E021F4005181811B
:101A2000704710B5C1F3421301F01F040121A1401A
:101A3000012B07D0022B07D01430002A026805D0F2
:101A40000A4304E00C30F8E71030F6E78A430260FE
:101A500010BD002A828A01D00A4300E08A438282B4
:101A60007047028A22F00F020282028A0A4302822F
:101A70007047828922F40062828182890A438281CE
:101A800070470029818902D041F0020101E021F074
:101A9000020181817047028A22F020020282028ABA
:101AA0000A43028270470029018A02D041F4804132
:101AB00001E021F4804101827047C1F30801818077
:101AC00070478088C0F308007047818941F00101A8
:101AD00081817047028BD2B20283028B42EA0121DC
:101AE00001837047028B02F47F420283028B0A4318
:101AF000028370470029818A02D041F0200101E071
:101B000021F02001818270470029818A02D041F0B2
:101B1000100101E021F01001818270470029818AC3
:101B200002D041F0080101E021F0080181827047F4
:101B30000029818902D041F4004101E0C1F30E0186
:101B4000818170470029818A02D041F4006101E05F
:101B500021F4006181827047828A22F0040282822D
:101B6000828A0A43828270470029818A02D041F02A
:101B7000020101E021F0020181827047024600204B
:101B800012880A4200D001207047C9430180704783
:101B900070B501F01F0501260024C1F3421306FAB7
:101BA00005F2012B0FD0022B0FD0838A4FEA1121AF
:101BB0000088134206FA01F600EA060001D000B1DF
:101BC0000124204670BD8389F0E7038AEEE70A0A04
:101BD00001219140C9430180704700000038014055
:101BE0000044004000480040004C004000500040CD
:101BF0005C4901200870704700F017FD322002F0A8
:101C00006AFDF9E700F0D4FE322002F064FDF9E746
:101C100000F08AFE322002F05EFDF9E7524C4FF4EC
:101C20007A7500F0A2FD2178012901D100F0E9FDCB
:101C3000284602F050FDF4E700F026FD322002F0C5
:101C40004AFDF9E700F034FE322002F044FDF9E7E6
:101C50007CB503F0D3FE04204449C501CDE9000161
:101C600000232A4642A1454802F06FFB3F49052068
:101C7000091FCDE9000100232A4641A1434802F093
:101C800064FB3A480224001DCDE9004000232A46A7
:101C90003FA1424802F059FB344800230830CDE907
:101CA00000402A463EA1424802F04FFB2F48E50182
:101CB0001030CDE9004000232A463EA1414802F001
:101CC00044FB2A4800230C30CDE900402A463EA1BF
:101CD000414802F03AFB414800900123002240496C
:101CE00040A003F0ADFB4349086020480838006875
:101CF00002F056FBBDE87C4003F09ABE1CB5FEF72F
:101D0000ADFA4FF44070FEF705FB482000F0C0F933
:101D100000F08CF800F0F0F800F049F901F014F848
:101D200001F072F901F090FD00F0F4FF04210022AF
:101D3000084601F0BFFE0D4900230839C8610120A3
:101D4000CDE9000142022CA12F4802F0FEFA012841
:101D500004D000F00BFF4FF0FF301CBD02F09BFEE3
:101D6000F9E700005A0000206F000020300000203A
:101D70004D61696E5F5461736B000000451C000883
:101D80004A6974696E675F5461736B00391C00089F
:101D90004144435F5461736B000000001D1C000848
:101DA0004469616E646F6E675F5461736B0000001D
:101DB000111C00085A6875616E677461695F54612F
:101DC000736B0000051C00084B61696775616E5FED
:101DD0005461736B00000000F91B0008F11B000840
:101DE000C0D401004F6E6553686F7454696D65729D
:101DF00000000000740000204170705461736B4358
:101E00007265617465000000511C00087047FEE7B0
:101E1000FEE7FEE7FEE7704710B502F0B7FF0128C6
:101E200003D0BDE8104003F014BE10BDF8B5012189
:101E30000820FEF782FF4FF47040ADF80000102537
:101E40002A4E8DF8035003248DF80240694630462F
:101E5000FEF78BFDE9023046FEF7F3FDA90230469E
:101E6000FEF7EFFD69023046FEF7EBFD012104208D
:101E7000FEF763FFE002ADF800008DF803508DF827
:101E800002401B4C69462046FEF76FFDE1142046D8
:101E9000FEF7D7FDA1142046FEF7D3FDF8BD38B5F7
:101EA000144C01212046FEF7EBFD01210D20FEF729
:101EB00044FF01212046FEF7E3FD1820ADF80000A5
:101EC00010258DF8035003248DF802406946074819
:101ED000FEF74BFDE802ADF800008DF803508DF8D9
:101EE000024069460248FEF740FD38BD000C014043
:101EF0000008014000023000F8B501210420FEF77F
:101F00001CFF0220ADF8000001255E4E8DF8025046
:101F100028248DF8034069463046FEF726FD102040
:101F2000ADF800008DF802508DF803406946304648
:101F3000FEF71BFD2020ADF800008DF802508DF853
:101F4000034069463046FEF710FD4020ADF8000022
:101F50008DF802508DF8034069463046FEF705FDC6
:101F60008020ADF800008DF802508DF803406946DE
:101F70003046FEF7FAFC2802ADF800008DF802505A
:101F80008DF8034069463046FEF7EFFC012108203A
:101F9000FEF7D3FE4FF4E460ADF800008DF8025078
:101FA0008DF8034069463848FEF7DFFCF8BD38B5C8
:101FB000364C01212046FEF763FD01210D20FEF77E
:101FC000BCFE01212046FEF75BFD1820ADF80000A5
:101FD00028258DF8035001248DF8024069462A48CF
:101FE000FEF7C3FCE003ADF800008DF803508DF858
:101FF000024069462348FEF7B8FC38BD70B50C4670
:102000000546FEF708FD38B9642002F064FB21465E
:102010002846FEF700FD08B1012070BD2146284684
:10202000FEF7F9FC0028F9D0002070BD70B50C4611
:102030000546FEF7F0FC012808D1642002F04BFBB6
:1020400021462846FEF7E7FC012800D0002070BD9D
:1020500070B50C460546FEF7DEFC012808D1642069
:1020600002F039FB21462846FEF7D5FC012801D0B5
:10207000002070BD21462846FEF7CDFC0128F9D08E
:10208000012070BD00080140000C0140000230003A
:1020900010B504466FF00400FEF781F91849E00816
:1020A00000EB40020870C2EBC0104FF6FF7202EA6C
:1020B000C000488010BD1249498848434FF0E021D4
:1020C000486100238B61012008610869C20701D0C3
:1020D000C003FAD50B618B61704709490978484301
:1020E0004FF0E021486100238B61012008610869FD
:1020F000C20701D0C003FAD50B618B6170470000A5
:102100004800002010B50221C848FFF78FFF0128C2
:1021100000D0002010BD10B51021C448FFF786FF85
:10212000012800D0002010BD10B52021BF48FFF7C6
:102130007DFF012800D0002010BD10B54021BB4814
:10214000FFF774FF012800D0002010BD10B58021DA
:10215000B648FFF76BFF012800D0002010BD012812
:102160000AD1012903D0022903D0B1A002E0B6A010
:1021700000E0B8A001F03CB8704701284ED1B84A41
:10218000908C31EA000349D008439084B1F5807FF8
:1021900035D010DC10292AD006DC022921D00429F0
:1021A00021D008291BD120E0202922D0402922D08B
:1021B000802914D121E0B1F5805F28D009DCB1F588
:1021C000007F1ED0B1F5806F1DD0B1F5006F06D134
:1021D0001BE0B1F5005F1CD0B1F5804F1BD094A07F
:1021E0001AE0A0A018E0A7A016E0AEA014E0B5A0E9
:1021F00012E0BCA010E0C3A00EE0CAA00CE0D1A089
:102200000AE0D8A008E0DFA006E0E6A004E0EDA028
:1022100002E0F4A000E0FBA000F0EABF704710B5B8
:102220004FF47A71484302F056FA80484FF48051D7
:1022300014300160C11401604FF4FA7002F04BFADF
:102240008748007D002804D02021BDE810400120EF
:1022500093E710BDF8B5824C0646E07B012802D119
:102260000221FFF77CFF0025E57300952B462A46E7
:102270000321A06A03F00CF84FF47A70704302F067
:102280002AFAE84E84F823504FF4004030604010A2
:1022900030604FF4FA77384602F01DFA607C18B1CE
:1022A00008210120FFF769FFA07C18B1102101204F
:1022B000FFF763FF0020FFF7B2FF4FF400503060DC
:1022C000384602F008FAE07C18B140210120FFF7FF
:1022D00054FFA573F8BD10B54FF47A71484302F06E
:1022E000FAF9D0494FF48050091F086010BD2DE95C
:1022F000F8435B4C0746A08CC00801D080210DE05C
:10230000C84D4FF400502D1F28604FF4FA78404616
:1023100002F0E1F9E07C012804D04021BDE8F84357
:1023200001202AE7E07B18B902210120FFF717FFFF
:102330000126E67331463046FFF711FF4FF47A70FD
:10234000784302F0C8F9A08CC008D7D184F8236084
:10235000F003286040102860404602F0BCF9607C21
:10236000012803D008210120FFF707FFA07C0128E6
:1023700003D010210120FFF700FF607A012802D16D
:102380000020FFF7A8FFA06A002809D002F0D0FBC8
:1023900002460020034600900221A06A02F078FF66
:1023A000BDE8F88310B54FF47A71484302F093F911
:1023B0009C494FF48050086010BD10B54FF47A71FD
:1023C000484302F088F919494FF4805014310860ED
:1023D0004010091F08604FF4FA7002F07CF92048A1
:1023E000007D012804D02021BDE810400120C4E672
:1023F00010BD10B54FF47A71484302F06CF90B49E7
:102400004FF40060143108604000091F08604FF469
:10241000FA7002F060F91248007D012804D02021F2
:10242000BDE810400120A8E6FEE0000000080140E1
:102430002A2A2A2A2A2A2A2A2A2A2A2A2A2A2A2AFC
:102440002A2A2A2A2A000000706C617920302C3058
:102450002C300000706C617920302C312C30000061
:102460004C00002070616765302E7661312E7478E3
:10247000743D22D5C5C1A6C9D9D3DACFC2CFDE2AD1
:102480002A22000070616765302E7661312E7478E3
:10249000743D22D5C5C1A6B4F3D3DAC9CFCFDE2AA5
:1024A0002A22000070616765302E7661312E7478C3
:1024B000743D22D6F7B5E7BBFAB7B4C0A1D3D0CEEE
:1024C000F322000070616765302E7661312E7478DA
:1024D000743D22B4D3B5E7BBFAB7B4C0A1D3D0CE14
:1024E000F322000070616765302E7661312E7478BA
:1024F000743D22D5C5C1A6B7B4C0A1D3D0CEF32AAE
:102500002A22000070616765302E7661312E747862
:10251000743D22D5A2B5E7BBFAB7B4C0A1D3D0CEE3
:10252000F322000070616765302E7661312E747879
:10253000743D22C6F0B3B5C7EBCFFBB3FDBEAFB160
:10254000A822000070616765302E7661312E7478A4
:10255000743D22B3F6CFD6C5DCC6ABB9CAD5CF2AF7
:102560002A22000070616765302E7661312E747802
:10257000743D22B3F6CFD6CBBAC1D1B9CAD5CF2AD2
:102580002A22000070616765302E7661312E7478E2
:10259000743D22B3F6CFD6B6D1C3BAB9CAD5CF2AC5
:1025A0002A22000070616765302E7661312E7478C2
:1025B000743D22B3F6CFD6CEC2B6C8B9CAD5CF2A9B
:1025C0002A22000070616765302E7661312E7478A2
:1025D000743D22B3F6CFD6CBD9B6C8B9CAD5CF2A67
:1025E0002A22000070616765302E7661312E747882
:1025F000743D22B3F6CFD6D1CCCEEDB9CAD5CF2A11
:102600002A22000070616765302E7661312E747861
:10261000743D22C9E8B1B8D2D1BCB1CDA32A2A2ACF
:102620002A220000140C014010BD10B5FFF76AFD0E
:10263000FE4C012805D10102FFF79FFD6079FFF7ED
:1026400009FEFFF771FD012805D18102FFF795FD15
:10265000E078FFF7FFFDFFF770FD012805D141028B
:10266000FFF78BFD2079FFF7F5FDFFF76FFD0128E0
:1026700009D14103FFF781FD207AFFF72CFEE079B5
:10268000BDE81040E6E510BD70B5FFF744FD4FF41E
:102690008046012805D13146FFF76FFD0020FFF786
:1026A000D9FD4FF48071E248FFF7C0FCDF4C0128F0
:1026B00003D094F8210000280AD0002504F8215FF7
:1026C0002846FFF7C7FD31460120FFF756FD25706C
:1026D00070BD70B5D54C86B0E08C002843D0217C0D
:1026E0004FF48055B1FBF0F0617B4843C2B2632ADE
:1026F00000D96322CF484BC88DE84B00CEA104A877
:1027000003F03AFD04A9684603F026FA6946CB486F
:1027100000F011FCFF2000F056FD207CE18CB0FBA6
:10272000F1F003F087FB4FF03332C54B03F0E8FBC9
:1027300006D229460120FFF720FD207BFFF78AFD06
:10274000207CE18CB0FBF1F003F074FB4FF06632BB
:10275000BC4B03F0BDFB06D229460120FFF70DFD5F
:10276000207BFFF777FD06B070BD30B5B64885B069
:10277000008803F05AFB6FF00B0103F069FA03F0D5
:1027800093FB4FF06632B14B03F06EFA03F0D0FBCF
:10279000A64D4FF0FF31E86203F05AFAAC4903F05E
:1027A000E7F903F054FBC4B2A24810300FC88DE81B
:1027B0000F002246A0A104A803F0DEFC04A968468D
:1027C00003F0CAF969469D4800F0B5FBFF2000F010
:1027D000FAFC287884420AD94FF400610120FFF7FF
:1027E000CCFC0020FFF777FDA879FFF733FD2878B0
:1027F000844204D8687A002801D1FFF7D3FD05B0E0
:1028000030BD70B5904886B0408803F00EFB6FF085
:102810000B0103F01DFA03F047FB8C4E4FF06634BA
:102820002246334603F020FA03F082FB7F4D2863F3
:1028300003F03AFB2246334603F088FA0022854B28
:1028400003F012FA03F017FBC4B27A4820300FC825
:102850008DE80F00224678A104A803F08DFC04A99E
:10286000684603F079F96946744800F064FBFF207C
:1028700000F0A9FCA87A844206D904210120FFF7C0
:102880007CFC0020FFF7B5FDE87A844206D20221E5
:102890000120FFF772FC0020FFF78FFDE87A8442E9
:1028A00005D3A87A844202D80020FFF7B8FC5AE783
:1028B00070B55F4E20213046FFF7B8FB00255B4C1A
:1028C000012801D0E07F20B1E5776078FFF70FFDA8
:1028D000E5774FF480613046FFF7A8FB012802D06E
:1028E00094F8200030B184F82050A078FFF7B2FCB3
:1028F00084F820504FF400713046FFF797FB012811
:1029000002D094F8220040B1A58484F8225000201F
:10291000FFF748FD50A000F06BFCA07B012802D11E
:10292000BDE87040D5E670BD10B5404CA07F50B3F7
:102930003F48237E1030011D4FF40042012B2AD066
:102940000A60637E4FF48042012B26D00A60A37E8A
:102950004FF40052012B22D00A60E07E01284FF094
:1029600000001ED0FFF71EFD3F49237F0A1D4FF4D4
:102970000060012B18D01060637F4FF48050012B52
:1029800014D0106010BD002020766076A076E0762E
:102990002077607710BD0260D3E70260D7E702605E
:1029A000DBE7FFF798FCDFE70860E5E7086010BDAC
:1029B0002DE9F0471E4F10213846FFF737FB1B4C1F
:1029C000012500260128607C71D010B127A000F0FD
:1029D0000FFC667408213846FFF728FB0128A07C0D
:1029E0006CD010B126A000F003FCA674DFF878903C
:1029F0004FF40041A9F110094846FFF717FB0128E1
:102A0000E07C62D010B123A000F0F2FBE67410214C
:102A10003846FFF70BFB01285ED026754FF480582F
:102A200041463846FEF701F801283EE04C00002000
:102A3000000C01402C6600082564000000440040A2
:102A40003333F33F6666E63F8200002066660A4045
:102A50000000C8420000594070616765302E74392B
:102A60002E7478743D222200100801407061676561
:102A7000302E7431332E7478743D22B9D822000080
:102A800070616765302E7431342E7478743D22B9CC
:102A9000D822000070616765302E7432302E747851
:102AA000743D22B9D822000001E017D01DE00128B2
:102AB00002D034A000F09CFB65748BE7012802D0A3
:102AC00035A000F095FBA57490E7012802D037A04F
:102AD00000F08EFBE5749AE725759FE7E07D0128FD
:102AE00002D037A000F084FBE57541463846FDF77B
:102AF0009CFF28B9E07D10B136A000F079FBE675A7
:102B00004FF4006A51464F464846FDF78EFF0128B4
:102B100006D1607D012802D033A000F069FB657505
:102B200051463846FDF781FF28B9607D10B133A0CA
:102B300000F05EFB667541463846FDF776FF0128DA
:102B400006D1A07D012802D031A000F051FBA5756F
:102B500041463846FDF769FF002805D1A07D10B138
:102B600030A000F045FBA675BDE8F087BFF3408FAD
:102B700031480168314A01F4E06111430160BFF35B
:102B8000408FFEE770616765302E7431332E7478A4
:102B9000743D22BFAA22000070616765302E743137
:102BA000342E7478743D22BFAA22000070616765DC
:102BB000302E7432302E7478743D22BFAA22000069
:102BC00070616765302E7431352E7478743D22BF84
:102BD000AA22000070616765302E7431352E74783A
:102BE000743D22B9D822000070616765302E7431BF
:102BF000362E7478743D22BFAA220000706167658A
:102C0000302E7431362E7478743D22B9D8220000EB
:102C100070616765302E7431372E7478743D22BF31
:102C2000AA22000070616765302E7431372E7478E7
:102C3000743D22B9D82200000CED00E00400FA0532
:102C400070B5012190B00846FEF76EF801214802E8
:102C5000FEF773F8384E3046FDF74CFD37480090CC
:102C6000374801A90024022581E831008020CDE900
:102C70000440400006908000079020200890000249
:102C8000CDE9090469463046FDF7A1FD0121304632
:102C9000FDF7C7FD01208DF830008DF831000B9451
:102CA0004FF46020CDE90D04244C8DF83C504C3C91
:102CB0000BA92046FDF7A2FB4FF44040FDF7D1FFE2
:102CC0000523012208212046FDF718FC05230222D6
:102CD00009212046FDF712FC01212046FDF7C0FB2B
:102CE00001212046FDF7B2FB2046FDF7CCFB204634
:102CF000FDF7CEFB0028FAD12046FDF7D0FB204699
:102D0000FDF7D2FB0028FAD101212046FDF7D3FBC5
:102D100010B070BD08B501210820FEF70EF80320A1
:102D2000ADF8000000208DF8030069460548FDF766
:102D30001CFEBDE8084083E7080002404C24014027
:102D400082000020000C01402DE9F04190B00121EB
:102D50000420FDF7F2FF01218803FDF7EEFF4FF499
:102D60000070ADF83C0018208DF83F0003209E4C09
:102D70008DF83E000FA92046FDF7F7FD2115ADF8AF
:102D80003C1004218DF83F100FA92046FDF7EDFD02
:102D900000244FF4E1300B90ADF834400C20DFF804
:102DA0004C82ADF83040ADF83600ADF83240ADF8A9
:102DB00038400BA94046FEF7B7FD4FF44070FDF7D1
:102DC000A9FA25208DF8000006208DF801008DF865
:102DD000024001208DF803006846FDF7A0FA0122A9
:102DE00040F224414046FEF71CFE012240214046AD
:102DF000FEF72FFE01210846FDF796FF08F10406B5
:102E00007B480096CDE9010403A9FF20802581E8D5
:102E1000310020200694CDE907404FF44050CDE921
:102E20000904744F69463846FDF7D1FCA802FDF746
:102E30001EFD012208213846FDF7FEFC012138461F
:102E4000FDF7EFFC01210846FDF76EFF684803A976
:102E50001438CDE9006010200290142081E8310080
:102E60006801CDE90840069407940A94614C6946CC
:102E7000143C2046FDF7ABFC01212046FDF7D1FCB8
:102E800001214046FEF7C3FD10B0BDE8F08170B5EA
:102E9000584E574C00213046FDF7C3FC3046FDF735
:102EA000D5FCC0F1FF05214653A003F055F9294692
:102EB000204602F046FE4FF40030FDF7D8FC4D49A5
:102EC000FF205839C8653046BDE870400121FDF744
:102ED000A8BC10B5454C40F224412046FEF758FEF0
:102EE000002806D0FFF7D3FF2046BDE81040FEF7CC
:102EF000E8BD10BD10B50446FEF7DFFD8021204679
:102F0000FEF73CFE0028F9D010BD2DE9F041154632
:102F10000E460746002405E0315D3846FFF7EAFF1C
:102F2000641CE4B2AC42F7D340213846FEF726FEDB
:102F30000028F9D0A9E770B50D46064600243046B2
:102F4000295DFFF7D7FF641C285D0028F7D14021D9
:102F50003046FEF713FE0028F9D070BD70B5044668
:102F6000080ACDB201462046FEF7A7FD8021204683
:102F7000FEF704FE0028F9D029462046FEF79DFD05
:102F800080212046FEF7FAFD0028F9D070BD70B50B
:102F9000164D0446C1B22846FEF78FFD8021284613
:102FA000FEF7ECFD0028F9D0204670BD10B50F4C9F
:102FB00020212046FEF7E2FD0028F9D02046BDE89A
:102FC0001040FEF77EBD2DE9F0410D460646002477
:102FD000064F05E0315D3846FFF78CFF641CA4B254
:102FE000AC42F7D351E7000000080140003801402F
:102FF0001801002058000240BDD3CAD5B5BDD7D6B0
:10300000B7FBA3BA25730A002DE9F04391B0012163
:103010000420FDF792FE4FF4003901214846FDF7E8
:1030200095FE0424ADF83C4018208DF83F000320A5
:10303000874D8DF83E000FA92846FDF796FC082124
:10304000ADF83C108DF83F400FA92846FDF78DFCE8
:1030500000244FF4E1300B90ADF834400C20DFF841
:10306000F481ADF83040ADF83600ADF83240ADF83F
:1030700038400BA94046FEF757FC4FF44070FDF76F
:1030800049F926208DF800008DF801408DF80240A6
:1030900001208DF803006846FDF741F9012240F256
:1030A00024414046FEF7BDFC012240214046FEF788
:1030B000D0FC01210846FDF737FE08F104066648FA
:1030C0000096CDE9010403A9FF20802581E83100A5
:1030D00020200694CDE907404FF44050CDE9090483
:1030E0005E4F69463846FDF772FB4846FDF7BFFB69
:1030F000012208213846FDF79FFB01213846FDF7E4
:1031000090FB01210846FDF70FFE534803A9143830
:10311000CDE9006010200290142081E831006801A0
:10312000CDE90840069407940A944C4C694614343F
:103130002046FDF74CFB01212046FDF772FB0121E3
:103140004046FEF764FC11B0BDE8F08370B5434E15
:10315000414C00213046FDF764FB3046FDF776FB1D
:10316000C0F1FF05204600F099F92946204602F0FB
:10317000E8FC4FF40030FDF77AFB3849FF206C394A
:1031800008673046BDE870400121FDF74ABB10B525
:10319000304C40F224412046FEF7FAFC002806D0CD
:1031A000FFF7D4FF2046BDE81040FEF78ABC10BDF3
:1031B00010B50446FEF781FC80212046FEF7DEFCB8
:1031C0000028F9D010BD70B5224E05460024002D10
:1031D0000DD029463046FEF770FC80213046FEF7C0
:1031E000CDFC0028F9D0641CE4B2032CEFD370BDF1
:1031F00070B5184E054600243046295DFFF7D8FF0C
:10320000641C285D0028F7D140213046FEF7B6FC4B
:103210000028F9D0BDE87040FF20D4E70E4A10B571
:1032200000203121143A1154401C1428FBDB0B4CB4
:10323000002114342046FDF7F4FA084A14216C3AB0
:10324000C2F884102046BDE810400121FDF7E9BA1C
:1032500000080140004400402B0200206C000240A6
:1032600010B50178202912D0092910D00A290ED0D2
:103270000C290CD008290AD00D2908D0C9B2401C4D
:1032800002460B462D2904D02B2902D003E0401C16
:10329000E7E71178421C0020A1F13004092C07D87F
:1032A00000EB800001EB400012F8011B3038F3E71F
:1032B0002D2B00D1404210BD38B5044680788DF8E2
:1032C00000006846FFF7CCFFC1B2607830280BD011
:1032D00031280DD032280FD0332804D19048017006
:1032E00090A002F039FF38BD9348017093A0F8E731
:1032F0009748017097A0F4E79B4801709BA0F0E706
:1033000038B5044680788DF800006846FFF7A8FFBE
:10331000C1B2607830280DD031280FD0322811D0BA
:10332000332806D1964801709648017896A002F09D
:1033300013FF38BD9C4801709CA0F8E7A2480170BB
:10334000A2A0F4E7A8480170A8A0F0E738B50446A9
:1033500080788DF800006846FFF782FFC1B2607880
:1033600033281ED009DC302813D0312815D032285C
:103370000ED1A5480170A5A008E0342815D0352845
:1033800017D07A2804D1A7480170A7A002F0E4FE64
:1033900038BDAB480170ABA0F8E7B0480170B0A0F1
:1033A000F4E777480170B5A0F0E7B9480170B9A01B
:1033B000ECE7BF480170BFA0E8E738B50446807865
:1033C0008DF80000E0788DF8010020798DF802007A
:1033D0006846FFF745FFC1B26078382845D00ADC5F
:1033E000BB4AA0F1300008281FD2DFE800F01F23FD
:1033F000252A2E32363AB74A632842D009DC3928CA
:1034000037D0612839D062280FD1B3480170B3A0FA
:1034100009E064283AD065283CD0662805D1B44834
:1034200001881170B3A002F097FE38BDB648017054
:10343000B6A0F8E7117002E0B94801701178B9A0A0
:10344000F1E7BD480170BDA0EDE7C1480170C1A022
:10345000E9E7C5480170C5A0E5E7C9480170C9A002
:10346000E1E7CD480170CDA0DDE7D1480170D1A0E2
:10347000D9E7D5480170D5A0D5E7DA480170DAA0C0
:10348000D1E7DF4801701178DEA0CCE7E148017098
:10349000E1A0C8E7E5480170E5A0C4E7017830295C
:1034A00006D0312905D0322904D0332903D103E7CE
:1034B00083E74BE724E770477CB5061E00DA7042CD
:1034C00000220A236C4690FBF3F503FB150590FBE5
:1034D000F3F03035A554521C0028F4DC002E02DA3B
:1034E0002D20A054521C0020A05402E0A05C01F842
:1034F000010B521EFAD57CBD10B5002A07D0034639
:1035000011F8014B03F8014B2CB1521EF8D110BD3C
:1035100003F8011B00E00021521EF9D110BD00008C
:103520006E0000207169646F6E675F66757765690C
:103530003D2564200A0000006B0000207169646F63
:103540006E675F7169646F6E673D2564200A0000D5
:103550006C0000207169646F6E675F74696E6763E9
:1035600068653D2564200A006D0000207169646F64
:103570006E675F6A6974696E673D2564200A0000A2
:1035800067000020600000207A68616E676C6964E3
:1035900069616E6A695F7A6875616E677461693DB9
:1035A0002564200A000000005D0000207A68756430
:1035B00069616E6A695F7A6875616E677461693D99
:1035C0002564200A000000005E000020636F6E6723
:1035D0006469616E6A695F7A6875616E6774616952
:1035E0003D2564200A0000005F0000207A686164C5
:1035F00069616E6A695F7A6875616E677461693D59
:103600002564200A00000000660000207A686164DA
:1036100069616E6A695F6469616E646F6E673D259A
:1036200064200A006A0000206469616E646F6E673E
:103630005F7368696E656E673D2564200A0000004F
:10364000640000207A68756469616E6A695F646904
:10365000616E646F6E673D2564200A00650000207E
:10366000636F6E676469616E6A695F6469616E64E5
:103670006F6E673D2564200A0000000066615F648C
:1036800069616E646F6E673D2564200A000000006A
:10369000680000207A68616E676C696A69615F64BE
:1036A00069616E646F6E673D2564200A000000004A
:1036B000690000207A68616E676C696A69616E5F93
:1036C0006469616E646F6E673D2564200A000000C6
:1036D0004E0000205C0000204C00002077656E64E6
:1036E000755F73686564696E673D2564200A000034
:1036F00072000020737564755F73686564696E6736
:103700003D2564200A0000004D00002071696368B7
:10371000655F79616E7368693D2564200A00000069
:103720005100002074696E676368655F79616E732C
:1037300068693D2564200A005000002073696C69A7
:10374000655F79616E7368693D2564200A00000039
:103750004F0000206475696D65695F79616E7368FB
:10376000693D2564200A00005200002077656E64E0
:10377000755F79616E7368693D2564200A000000F9
:1037800058000020737564755F79616E7368693DD8
:103790002564200A000000005300002079616E7744
:1037A000755F79616E7368693D2564200A000000C9
:1037B000540000207361736875695F79616E736886
:1037C000693D2564200A0000560000207A68616E79
:1037D000676C695F7368616E677869616E3D2564C7
:1037E000200A0000570000207A68616E676C695FEC
:1037F0007869617869616E3D2564200A00000000E7
:1038000059000020737564755F6D5F733D256420FA
:103810000A000000550000206B61696368657361F0
:10382000736875693D2564200A000000800000204F
:103830007A68616E676C695F62616F6A696E673D25
:103840002564200A0000000008B501210820FDF7CA
:1038500074FA4020ADF8000028208DF80300694676
:103860004248FDF782F84FF44070FCF753FD1E20EC
:103870008DF8000001208DF8010000218DF8021064
:103880008DF803006846FCF74AFDBDE8084000F0EB
:103890002BB870B5364D02212846FEF712F828469F
:1038A000FDF7ECFF334C60802846FDF7E9FF2080F0
:1038B0002288618830A002F04FFC6088364D80B1CC
:1038C0006088401C02F0B1FA0146344802F082F9E7
:1038D00002F0BDFA81B22980BDE8704030A002F04C
:1038E0003BBC0020288070BD30B587B0012104208A
:1038F000FDF72CFA4FF6FE700024ADF80400ADF889
:1039000000001B4DADF80640ADF802408DF80840B0
:1039100069462846FDF7F8FA0120ADF81000ADF829
:103920000C40ADF80E40ADF81240ADF8144003A9BC
:103930002846FDF728FD50212846FDF7BDFD04214E
:103940002846FDF776FF80212846FDF77AFF012201
:1039500002212846FDF795FD02212846FDF7B1FF1B
:1039600001212846FDF778FD07B030BD000C01406D
:10397000000800408600002049433156616C75659F
:10398000203D202564202049433256616C75652016
:103990003D20256420000000720000200040894482
:1039A000C6B5C2CAA3BA25640A00000000F1080126
:1039B0004FF0FF32C0E90112C160016100210160D6
:1039C000704700210161704742684A6093688B60CC
:1039D00093685960916008610168491C01607047F3
:1039E00030B50C68621C02D000F1080202E00269E6
:1039F00004E01A4653681D68A542FAD953684B6023
:103A000099608A60516008610168491C016030BD9D
:103A1000D0E9013201699A60D0E901235A604A680D
:103A2000824201D182684A60002202610868401E19
:103A30000860704770B50D46040005D140F21B12B6
:103A4000F7A1FEA002F088FB01F0D8FFD4E90F2017
:103A5000216802FB001161600021A1632168A1605F
:103A60000A46D4E90F01401E00FB0121E160214616
:103A70004FF0FF3001F8440F487004F110004DB1D1
:103A8000FFF794FF04F12400FFF790FF01F0D0FF4F
:103A9000012070BD21690029F8D001F0C1F800288B
:103AA000F4D0EA494FF080500860BFF34F8FBFF366
:103AB0006F8FEBE770B50E46050005D14FF4C47269
:103AC000D7A1DEA002F048FB96B105FB06F0483016
:103AD00001F03EFE040009D004F1480120464EB139
:103AE0000160C0E90F560121FFF7A4FF204670BD19
:103AF0000020ECE70060F4E72DE9F041044601F016
:103B00007DFF94F9455004F1240609E0606A48B14C
:103B1000304601F085F808B101F034F96D1E6DB240
:103B2000002DF3DC4FF0FF3684F8456001F080FF94
:103B300001F064FF94F9445004F1100709E0206992
:103B400048B1384601F06CF808B101F01BF96D1E60
:103B50006DB2002DF3DC84F84460BDE8F04101F063
:103B600067BF2DE9F041856B164604460027026CBD
:103B7000FAB17EB1E06801F0CBFFE168206C091A70
:103B8000E1602268914202D26168081AE060022E68
:103B90000DD00EE0A06801F0BBFF216CA0680844C6
:103BA000A0606168884204D32068A06001E005B18C
:103BB0006D1E6D1CA5633846BDE8F0812DE9FF4FF1
:103BC00083B01F468B4604004FF0000605D140F23B
:103BD000D92293A199A002F0BFFABBF1000F07D13F
:103BE000206C28B140F2DA228DA194A002F0B4FA40
:103BF000022F08D1E06B012805D040F2DB2288A11A
:103C00008EA002F0A9FA01F0C1F838B9059828B1E0
:103C100040F2DE2282A189A002F09EFA4FF0000A53
:103C20004FF08058DFF8249201F0E8FEA06BE16BC2
:103C3000884205D3022F03D00598C8B1DEB11EE03B
:103C40003A4659462046FFF78CFF616A19B104F1E4
:103C5000240000F0E5FF28B1C9F80080BFF34F8FC2
:103C6000BFF36F8F01F0E4FE012007B0BDE8F08FD5
:103C700001F0DEFE21E0684601F040F8012601F087
:103C8000D7FE00F0C5FC01F0B9FE94F94400401CD9
:103C900001D184F844A094F94500401C01D184F876
:103CA00045A001F0C5FE05A9684601F038F830B11D
:103CB0002046FFF721FF00F01DFC0020D5E701F0B2
:103CC0009DFEA06BE16B884201D1012500E000253B
:103CD00001F0AEFE95B104F11000059900F047FF28
:103CE0002046FFF709FF00F005FC00289CD1C9F829
:103CF0000080BFF34F8FBFF36F8F95E72046FFF72C
:103D0000FBFE00F0F7FB8FE72DE9F0471F469046DA
:103D10008946040005D140F29F3241A147A002F03C
:103D20001BFAB9F1000F07D1206C28B14FF468726B
:103D30003BA142A002F010FA022F08D1E06B01284B
:103D400005D040F2A13236A13CA002F005FA01F004
:103D500094FE5020EFF3118680F31188BFF34F8F4C
:103D6000BFF36F8FA06BE16B884206D3022F04D0A4
:103D7000002086F31188BDE8F08794F945503A4653
:103D800049462046FFF7EDFE681C04D06D1C84F800
:103D900045500120EDE7606A0028FAD004F12400C4
:103DA00000F03EFF0028F4D0B8F1000FF1D001215F
:103DB000C8F80010EDE770B50E46040005D140F2DA
:103DC0003C4217A11DA002F0C7F9206C28B14FF4A6
:103DD000886213A119A002F0BFF9206838B96068A1
:103DE00028B140F245420EA114A002F0B5F901F04D
:103DF00044FE5020EFF3118580F31188BFF34F8FFD
:103E0000BFF36F8FA16BE06B884231D994F9450005
:103E1000491CA163411C1DD0401C84F8450017E0DB
:103E20002E2E5C2E2E5C4672656552544F535C7389
:103E300072635C71756575652E6300004572726F03
:103E4000723A25732C25640D0A00000004ED00E091
:103E500001200EE0606A0028E1D004F1240000F0A7
:103E6000DFFE0028DBD0002ED9D001203060D6E75D
:103E7000002085F3118870BD30B4026C0B46002A17
:103E80000BD0C1681144C1604468A14201D30168EC
:103E9000C16030BC184601F03BBE30BC70472DE914
:103EA000FF4F83B09B468A4604004FF0000607D1BF
:103EB00040F2DC42AFF29801AFF2800002F04CF920
:103EC000BAF1000F09D1206C38B140F2DD42AFF2F7
:103ED000B001AFF2980002F03FF900F057FF48B987
:103EE000059838B14FF49C62AFF2CC01AFF2B40048
:103EF00002F032F94FF000094FF08057DFF8848369
:103F000001F07CFDA56B0DB351462046E668FFF736
:103F1000B3FFBBF1000F11D0E660606A50B104F14D
:103F2000240000F07DFE28B1C8F80070BFF34F8F69
:103F3000BFF36F8F01F07CFD012096E66D1EA56337
:103F400020690028F6D004F11000EAE7059808B1CE
:103F50001EB106E001F06CFD27E0684600F0CEFEE1
:103F6000012601F065FD00F053FB01F047FD94F9D7
:103F70004400401C01D184F8449094F94500401C51
:103F800001D184F8459001F053FD05A9684600F081
:103F9000C6FE002820460AD0FFF7AEFD00F0AAFAC0
:103FA000204600F062F90028AAD000205DE600F06B
:103FB0005CF990B104F12400059900F0D8FD204689
:103FC000FFF79AFD00F096FA002899D1C8F8007022
:103FD000BFF34F8FBFF36F8F92E72046FFF78CFD43
:103FE00000F088FA8CE72DE9F047904689460400F6
:103FF00007D14FF4B462AFF2D811AFF2C01002F0A3
:10400000ABF8B9F1000F09D1206C38B140F2A152E0
:10401000AFF2F411AFF2DC1002F09EF801F02DFDCA
:104020005020EFF3118780F31188BFF34F8FBFF358
:104030006F8FA66BF6B194F9445049462046FFF7BE
:104040001BFF761EA663681C04D06D1C84F84450C8
:10405000012010E020690028FAD004F1100000F0DF
:10406000DFFD0028F4D0B8F1000FF1D00121C8F82D
:104070000010EDE7002087F311887CE62DE9F04180
:104080000E46040007D140F2FC52AFF26C21AFF2B1
:10409000542002F061F84EB9206C48B140F2FD5254
:1040A000AFF28421AFF26C2002F056F8206C38B9E0
:1040B00040F2FE52AFF29821AFF2802002F04CF8AD
:1040C00001F0DBFC5020EFF3118580F31188BFF382
:1040D0004F8FBFF36F8FA06B30B131462046E7683A
:1040E000FFF7CAFE0120E76085F3118864E510B58B
:1040F000040007D140F22F62AFF2DC21AFF2C420FE
:1041000002F02AF801F07AFCA46B01F091FC204641
:1041100010BD10B5040007D140F24162AFF200318A
:10412000AFF2E82002F018F801F068FCD4E90E10B4
:10413000441A01F07DFC204610BD10B5040007D1E3
:1041400040F25162AFF22831AFF2103002F004F8C1
:10415000A06B10BD4C4A002102EBC1035B68834297
:1041600006D1002042F8310002EBC10148607047DF
:10417000491C0A29F0D3704710B5040007D140F25A
:104180005D62AFF26431AFF24C3001F0E5FF2046E2
:10419000FFF7E0FF2046BDE8104001F044BB10B53A
:1041A000040007D140F29372AFF28C31AFF2743059
:1041B00001F0D2FFA06B08B1002010BD012010BD9E
:1041C00010B5040007D140F2BA72AFF2AC31AFF2D1
:1041D000943001F0C1FFA06BE16B884201D1012056
:1041E00010BD002010BD10B5274B002253F83240FF
:1041F0001CB1521C0A2AF9D310BD43F8321003EB4C
:10420000C201486010BD10B500241F4A214602EBD0
:10421000C1035B68834202D152F8314002E0491C7D
:104220000A29F4D3204610BD70B515460E46044643
:1042300001F0E4FB94F944100020491C01D184F8FA
:10424000440094F94510491C01D184F8450001F05F
:10425000EFFBA06B28B92A46314604F1240000F098
:10426000C4FC2046BDE8704046E410B5044601F0A9
:10427000C5FBA06B20B1002401F0DAFB204610BD85
:104280000124F9E704ED00E02C0300202DE9F041C2
:10429000054601F0B3FBFE4EB068401CB0603068CC
:1042A000FC4F10B1706930B32BE03560B068012865
:1042B00027D1002404EB840007EB8000FFF776FB96
:1042C000641C202CF6D3F448FFF770FBF24814303E
:1042D000FFF76CFBF0482830FFF768FBEE483C30F6
:1042E000FFF764FBEC485030FFF760FBEA4870636F
:1042F0001430B06305E03068E96AC06A884200D8CB
:104300003560706A0121401C7062E86A3269814040
:104310001143316100EB800007EB8000291DFFF79E
:1043200053FB01F085FB706900280CD03068E96A06
:10433000C06A884207D2D9494FF080500860BFF365
:104340004F8FBFF36F8FBDE8F0812DE9FF5F83468C
:10435000DDE90E87994616468A46900001F0F8F985
:1043600005001AD04C2001F0F3F9040012D02563A7
:104370000021CDE90241CDE900874B463246514646
:10438000584600F0CCFE2046FFF780FF012004B025
:10439000BDE8F09F284601F046FA4FF0FF30F6E7FF
:1043A00070B5044601F02AFBB94D04B92C68201DF4
:1043B000FFF72EFB58B9E06AB64A00EB800152F8CD
:1043C000211021B901218140286988432861A06A10
:1043D00018B104F11800FFF71BFB686A401C686203
:1043E0002868844208D1AC48211D3C30FFF7ECFA24
:1043F0006868401C686007E0A868401EA860204606
:1044000000F0DEFE00F0CFFE01F012FB686900282C
:1044100012D0286884420FD1286B28B140F265423F
:104420009FA1A6A001F098FE9C494FF08050086023
:10443000BFF34F8FBFF36F8F70BD2DE9F041944FE5
:104440000026386B38B1B869401CB861F86900B112
:104450000126304677E7FD686D1CFD6011D1786B51
:10446000006828B140F6D9128DA194A001F074FE25
:10447000786BB96B7963B863386A401C386200F0B6
:1044800092FEB86ADFF80C82854209D3786B006827
:1044900080B1786BC068C468606885420DD2B8622C
:1044A0003868C06A00EB800158F821000128CDD996
:1044B0000126CBE74FF0FF30F1E7201DFFF7A8FA08
:1044C000A06A18B104F11800FFF7A2FAE06A01210E
:1044D0003A6981401143396100EB800108EB8100AA
:1044E000211DFFF771FAE06A3968C96A8842CDD3A5
:1044F0000126CBE72DE9F047654D00242746286BC0
:1045000028B94FF4FD6266A16CA001F025FE01F010
:1045100075FA286B401E2863286BE0BBA8685E49CB
:1045200028310126B8B3DFF86C918846D8F800101E
:10453000E9B1D8F80C00C46804F11800FFF768FA74
:10454000201DFFF765FAE06A2A6906FA00F11143B7
:10455000296100EB800109EB8100211DFFF734FA8E
:10456000E06A2968C96A8842E0D3EE61DEE70CB1EF
:1045700000F019FEAC693CB1FFF75FFF00B1EE61DE
:10458000641EF9D10020A861E86920B143490127E0
:104590003807086000E003E0BFF34F8FBFF36F8F71
:1045A00001F046FA3846BDE8F0872DE9F041384E73
:1045B0000F460446F5683068001DFFF729FA38B940
:1045C000306890F82C1001208840316981433161B6
:1045D000601C08D13FB13168BDE8F0412E48503031
:1045E000091DFFF7F1B930682C44AC4244603168D2
:1045F00005D2B06BBDE8F041091DFFF7F1B9706B52
:10460000091DFFF7EDF9B06A844200D2B4629AE660
:104610001F48016B491C016370472DE9F0410E46AC
:1046200005004FF0000405D140F279421CA123A0FF
:1046300001F092FD2EB940F27A4219A11FA001F0BB
:104640008BFD134F386B28B140F27B4214A11BA0A5
:1046500001F082FDFFF7DCFFFA68286881199042BB
:1046600002D9884202D804E0884201D8914200D998
:10467000012429601CB1881A0021FFF796FFFFF77B
:1046800039FF002826D105494FF0805008601DE011
:104690008C0000207C030020FC05002004ED00E0DD
:1046A0002E2E5C2E2E5C4672656552544F535C7301
:1046B00072635C7461736B732E6300004572726F7A
:1046C000723A25732C25640D0A000000BFF34F8F4A
:1046D000BFF36F8F37E610B5040014D0FE49096BA5
:1046E00039B140F2CF42AFF24801AFF2300001F0F1
:1046F00033FDFFF78DFF00212046FFF756FFFFF740
:10470000F9FE002807D1F5494FF080500860BFF34B
:104710004F8FBFF36F8F10BD70B5050007D140F20A
:10472000FB42AFF28401AFF26C0001F015FDEA4EDE
:104730003068854201D1002070BD01F05FF96C69DD
:1047400001F076F9706B844202D0B06B844201D1E3
:10475000022070BDE248844204D1A86A0028F7D143
:10476000032070BDDE481438844202D00CB1012011
:1047700070BD042070BD10B5044601F03FF90CB9BE
:10478000D5480468E46A01F053F9204610BD10B51D
:10479000044601F072F95020EFF3118180F3118883
:1047A000BFF34F8FBFF36F8F0CB9CB480468E06A3B
:1047B00081F3118810BD2DE9F04100260D46044615
:1047C000202908D34FF4B062AFF22C11AFF21410CD
:1047D00001F0C2FC1F2501F011F9BF4F04B93C687C
:1047E000E06AA8423BD03968854206D98C4207D09E
:1047F0003968C96AA94202D902E08C4200D1012677
:104800008046E562A069002802DBC5F12000A061B6
:10481000B44D08EB8800616905EB8000814215D139
:10482000201DFFF7F5F8012120B93A6901FA08F0D7
:1048300082433A61E06A3A6981401143396100EB91
:10484000800005EB8000211DFFF7BEF83EB1A349B3
:104850004FF080500860BFF34F8FBFF36F8FBDE8FC
:10486000F04101F0E5B870B59B4D286B10B1012007
:10487000E86170BD0020E86128699A4EB0FA80F0C6
:10488000C0F11F0000EB800456F8240038B940F650
:10489000F622AFF2F411AFF2DC1001F05DFC06EB92
:1048A000840000F10802416849684160914201D1E9
:1048B00049684160C868286070BD70B5044601F061
:1048C0009DF8854D04B92C68201DFFF7A1F858B953
:1048D000E06A844A00EB800152F8211021B90121DD
:1048E0008140286988432861A06A18B104F1180042
:1048F000FFF78EF8211D7A48FFF766F801F098F867
:10490000686928B101F07AF800F04DFC01F090F8E8
:104910002868844213D1686990B1286B38B140F29D
:104920005762AFF28421AFF26C2001F015FC6B49A5
:104930004FF080500860BFF34F8FBFF36F8F70BD93
:104940006748A9680068884202D10020286070BDCD
:10495000BDE8704087E770B50025040007D140F23C
:104960008162AFF2C421AFF2AC2001F0F5FB5C49EB
:104970006069884205D1A06A2839884201D000B90F
:104980000125284670BD70B504002BD0524D286813
:10499000844231D001F032F82046FFF7DCFFE8B165
:1049A000201DFFF735F8E06A01212A698140114393
:1049B00029614C4900EB800001EB8000211DFFF7CD
:1049C00003F8E06A2968C96A884207D343494FF06F
:1049D00080500860BFF34F8FBFF36F8FBDE870400A
:1049E00001F026B840F2AB62AFF24C31AFF2343096
:1049F000BDE8704001F0B0BB70BD2DE9F04100266C
:104A0000040007D140F2E262AFF26C31AFF25430F1
:104A100001F0A2FB01F031F85020EFF3118580F393
:104A20001188BFF34F8FBFF36F8F2046FFF793FFBF
:104A3000F0B1294F386B20B1294804F1180128380A
:104A400014E0E06A3968C96A884200D30126201D53
:104A5000FEF7DEFFE06A01213A69814011433961C6
:104A6000204900EB800001EB8000211DFEF7ACFF28
:104A700085F31188304666E41A4E4FF08054174D86
:104A800000F0A8FB30680128FAD92C60BFF34F8FE3
:104A9000BFF36F8FF4E71CB50F4800242C30CDE92D
:104AA00000402346802210A11148FFF74EFC012848
:104AB00003D100F0A8FC01280CD0401C2BD140F2FF
:104AC0008472AFF22441AFF20C4002B0BDE8104056
:104AD00001F042BB50200DE08C00002004ED00E00E
:104AE0004C0600207C03002049444C450000000097
:104AF000794A000880F31188BFF34F8FBFF36F8F9F
:104B0000F8484FF0FF31816201214161C460BDE886
:104B10001C4000F031BF1CBD502080F31188BFF352
:104B20004F8FBFF36F8FEF490020486100F05ABFED
:104B3000EC48C068704710B500F09FFFE948C068B6
:104B400010BDE8488068704710B510B104461CB12C
:104B50000AE0E4480468FAE740F68C02AFF2C0418C
:104B6000AFF2A84001F0F8FA04F1340010BD70B5BE
:104B70000D46040007D140F60632AFF2DC41AFF239
:104B8000C44001F0E9FAD748016820461831FEF721
:104B900027FF2846BDE87040012106E52DE9F041D8
:104BA00017460E46050007D140F61732AFF21051F6
:104BB000AFF2F84001F0D0FACA4C206B38B940F699
:104BC0001B32AFF22451AFF20C5001F0C5FA21684C
:104BD00046F000408861216828461831FEF7F4FE4F
:104BE0003846BDE8F0410121DFE470B514460E46B9
:104BF000050007D140F63132AFF25C51AFF24450BC
:104C000001F0AAFAB748016828461831FEF7DCFE21
:104C10000CB14FF0FF3621463046BDE87040C4E489
:104C20002DE9F041C068C4683CB940F66132AFF28A
:104C30009051AFF2785001F08FFA04F11800074656
:104C4000FEF7E6FEA74D286B012658B13946A64867
:104C5000FEF7BAFEE06A2968C96A884212D90120C3
:104C6000EE61D4E4201DFEF7D3FEE06A2A6906FA5D
:104C700000F1114329619D4900EB800001EB8000A8
:104C8000211DE5E70020C2E470B5964D06460C46AE
:104C9000286B38B940F69932AFF2FC51AFF2E450CC
:104CA00001F05AFA44F000403060F4683CB940F634
:104CB000A132AFF21461AFF2FC5001F04DFA304670
:104CC000FEF7A6FE201DFEF7A3FEE06A01262A6974
:104CD00006FA00F111432961844900EB800001EBE1
:104CE0008000211DFEF770FEE06A2968C96A8842CB
:104CF00002D90120EE6170BD002070BD10B5040026
:104D000007D140F6C132AFF26861AFF2506001F0F6
:104D100023FA7448016A2160C068606010BD70B5F4
:104D20000D46040007D140F6CB32AFF28C61AFF2F2
:104D3000746001F011FA3DB940F6CC32AFF2A061D7
:104D4000AFF2886001F008FA00F058FE654AD068BA
:104D500029684B1C0FD02368126A934202D0626804
:104D600082420AD96268801A884206D2081A2860EC
:104D70002046FFF7C3FF002400E0012400F058FEA6
:104D8000204670BD57490120C861704755484169A8
:104D900019B1006B18B10020704701207047022044
:104DA0007047504908680A688069D26A0968C2F188
:104DB00020028A61704770B50C46064600F01EFE60
:104DC000484D2868406C80B92968012081F8480066
:104DD0005CB101212046FFF7E8FB45494FF08050C8
:104DE0000860BFF34F8FBFF36F8F00F021FE00F01C
:104DF00005FE2868446C002034B116B12968486467
:104E000002E02A68611E5164296881F8480000F0B8
:104E10000FFE204670BD2DE9F0411E46154688461E
:104E2000074600F0EBFD2F4C206890F84800022860
:104E300014D02068416CB94341642168012081F895
:104E400048005EB101213046FFF7AFFB28494FF023
:104E500080500860BFF34F8FBFF36F8F00F0E8FD05
:104E600000F0CCFD15B12068406C2860206890F8F7
:104E7000480001280DD02068416C21EA08014164F6
:104E800001252168002081F8480000F0D1FD284666
:104E900020E40025F5E72DE9F0411F4690460D4638
:104EA00004004FF0010607D141F2FD02AFF61001F8
:104EB000AFF2F87001F050F900F0A0FD0FB1606C96
:104EC000386094F84800022184F84810B8F1050FC2
:104ED00017D2DFE808F016030F151300616C2943A1
:104EE0000AE000008C000020240600207C03002043
:104EF00004ED00E0616C491C616402E0022803D00B
:104F00006564012802D02AE0002628E0201DFEF773
:104F10007FFDC34DE06A01212A6981401143296167
:104F2000C04900EB800001EB8000211DFEF74CFD25
:104F3000A06A38B141F23512AFF69C01AFF6840099
:104F400001F00AF9E06A2968C96A884207D9B649B6
:104F50004FF080500860BFF34F8FBFF36F8F00F0AA
:104F600067FD304687E52DE9F0471F46DDF82090C4
:104F700092460D4604004FF0010807D141F2681235
:104F8000AFF6E401AFF6CC0001F0E6F800F075FDF5
:104F90005020EFF3118680F31188BFF34F8FBFF3DA
:104FA0006F8F0FB1606C386094F84800022184F86C
:104FB0004810BAF1050F0ED2DFE80AF00D03060C17
:104FC0000A00616C294301E0616C491C616402E0E4
:104FD000022803D06564012803D031E04FF00008B7
:104FE0002EE0A06A38B141F2AF12AFF64C11AFF625
:104FF000341001F0B1F88A4D286B012778B104F123
:1050000018018A48FEF7E0FCE06A2968C96A88420C
:1050100016D9B9F1000F12D0C9F8007010E0201DA8
:10502000FEF7F6FCE06A2A6907FA00F111432961EC
:1050300000EB80017B4800EB8100211DE2E7EF617E
:1050400086F311884046BDE8F0872DE9F041884697
:10505000040007D141F2E312AFF6BC11AFF6A41081
:1050600001F07AF800F009FD5020EFF3118780F38A
:105070001188BFF34F8FBFF36F8F94F84800022160
:1050800084F84810616C491C616401282ED1A06A23
:1050900038B141F20922AFF6F811AFF6E01001F095
:1050A0005BF85F4D286B012678B104F118015F4869
:1050B000FEF78AFCE06A2968C96A884216D9B8F105
:1050C000000F12D0C8F8006010E0201DFEF7A0FC11
:1050D000E06A2A6906FA00F111432961514900EB9F
:1050E000800001EB8000211DE2E7EE6187F311886B
:1050F000C1E410B558B1044600F080FC94F84800B3
:10510000022807D0002400F093FC204610BD44483C
:105110000468F1E7002084F848000124F3E72DE952
:10512000F0470E46DDE9098482466FF00301206BEB
:1051300001EB82010844089D20F007079946780793
:1051400005D040F22B323AA140A001F005F8002032
:105150002218315C82F83410315C11B1401C1028E7
:10516000F6D3002684F84360202D00D31F25201D90
:10517000E562FEF726FC04F11800FEF722FC24612C
:10518000C5F120006462A061666484F848604A4604
:105190005146384600F0D3FB2060B8F1000F01D033
:1051A000C8F800404FE71E48416B096829B1416BC0
:1051B000C968C9684968816270474FF0FF31FAE7F2
:1051C00010B50446006B00F02EFB2046BDE81040F1
:1051D00000F029BB70B5154E114D14361CE0FFF7D9
:1051E00017FA306820B10024FFF784F9A4B901E070
:1051F0000124F9E700F002FCF068C468201DFEF706
:1052000007FCA868401EA8606868401E686000F03F
:105210000FFC2046FFF7D4FF68680028DFD170BD7F
:105220008C0000207C03002004ED00E02406002018
:105230002E2E5C2E2E5C4672656552544F535C7365
:1052400072635C7461736B732E6300004572726FDE
:10525000723A25732C25640D0A00000070B50024F5
:105260004160FF4D0061914206D8D11A8269914296
:1052700006D2011D286907E09A4203D2994201D360
:10528000012403E0011DE868FEF7AAFB204670BD7B
:105290002DE9FE4F9946DDF830A090460D460600F8
:1052A0004FF0000705D14FF4D372EEA1F4A000F047
:1052B00053FFEB4C206880B1CDE900580296062DD3
:1052C00010DAFFF763FD02284FF0000308D0002238
:1052D00069462068FEF772FC07463846BDE8FE8F37
:1052E0005246F5E700234A466946FEF70DFDF3E70F
:1052F00070B586B0DA4E4CE00198002849DB039C7B
:10530000606910B1201DFEF783FB04A800F01FF9AF
:10531000054601980A283CD2DFE800F00505053B68
:10532000273805053B270298A169034601442A4610
:105330002046FFF793FF00282BD0616A204688475C
:10534000E069012825D1002000900298A16900237E
:10535000421819462046FFF79BFFD0B940F2213290
:10536000C0A1C7A000F0F8FE13E00298A06128B920
:105370004FF44E72BBA1C2A000F0EEFEA0692B4616
:1053800041191A462046FFF769FF02E0204600F067
:105390004AFA00231A4601A93068FEF780FD00286A
:1053A000AAD106B070BDAE4CE068016839B10021E9
:1053B00039B1002000F0DDF8FFF79AFFF4E7012192
:1053C000F6E7C0680068F5E710B500F017FBA44CDD
:1053D0002068A0B9AE48FEF7E9FAAD481430FEF7F0
:1053E000E5FAAB48E0601430206100220C210A206D
:1053F000FEF760FB206010B1A6A1FEF7F4FEBDE849
:10540000104000F015BB1CB50024FFF7DDFF9448E9
:10541000006868B192491F20091DCDE900010023F1
:105420004FF480729DA19F48FEF78FFF040005D1C5
:1054300040F233128BA192A000F08EFE20461CBDDC
:105440002DE9F0470746994616460D462820DDF817
:1054500020A000F07DF9040014D0B8464F46D14694
:105460002DB94FF4C67290A196A000F075FEFFF71B
:10547000ABFF04F11801C4F8008081E8E002201DB0
:10548000FEF79FFA2046BDE8F08710B5744C6068BF
:1054900028B94FF4E87273A179A000F05DFE60684E
:1054A00010BD10B5040005D140F2D9126DA174A051
:1054B00000F052FEA06910BD10B5040005D140F205
:1054C000E31268A16EA000F047FE606810BD10B541
:1054D000040005D140F2ED1262A169A000F03CFE8B
:1054E000206810BD10B5040005D140F2DA325DA18C
:1054F00063A000F031FE00F081FA606908B1012478
:1055000000E0002400F094FA204610BD10B504001D
:1055100005D140F2EF3253A159A000F01DFE00F07A
:105520006DFA246A00F084FA204610BD70B50D466D
:10553000040005D140F2FF324AA151A000F00CFE58
:1055400000F05CFA2562BDE8704000F071BA70B5F9
:105550000546FFF7EDFA424E0446B068844203D296
:1055600000F038F8012000E0002028602046B460F8
:1055700070BDF8B50D460646FFF74AF86846FFF7D6
:10558000E6FF0446009810B1FEF7B4FFF8BD3448BA
:10559000ADB101690968D9B10025311B2A460068FF
:1055A000FEF742FEFEF7A6FF0028EFD149494FF073
:1055B00080500860BFF34F8FBFF36F8FF8BDA642D6
:1055C000EBD8FEF797FF2146304600F034F8F8BDDF
:1055D0000125E2E7F8B5224E25E0C068C4680568F9
:1055E000201DFEF715FA616A20468847E069012808
:1055F00019D1A0692844A84206D924616060211D00
:10560000F068FEF7EDF90EE0002003460146009039
:105610002A462046FFF73CFE28B940F2923222A1EA
:1056200028A000F099FDF06801680029D5D1316902
:10563000C6E90310F8BDF8B5054609480E46C0682E
:10564000C068C468201DFEF7E3F9E069012855D160
:10565000A0692B46411932462046FFF7FFFD3BE08B
:10566000C80000202E2E5C2E2E5C467265655254BA
:105670004F535C7372635C74696D6572732E630063
:105680004572726F723A25732C25640D0A00000072
:1056900060060020546D725100000000546D7220AD
:1056A00053766300A75300082E2E5C2E2E5C4672A4
:1056B000656552544F535C7372635C74696D6572B7
:1056C000732E63004572726F723A25732C25640D38
:1056D0000A00000004ED00E080B10020034601460E
:1056E00000902A462046FFF7D3FD38B94FF40272E6
:1056F000AFF24C01AFF2340000F02EFD616A01B050
:105700002046BDE8F040084730B5744900E0114636
:105710000A688242FBD34B685C18844203D140681C
:1057200018444860084643681C18944209D16B4CE1
:10573000103C2468A24209D052681A4442600A68A8
:1057400012680260814200D0086030BD0460F9E751
:105750002DE9F04105460026FEF75AFF5F4F103F46
:10576000386808B900F098F8F86805424ED1002D65
:105770004CD0083568070BD005F00700C0F10800D1
:105780000544680704D0BF2255A15FA000F0E4FCE7
:10579000002D3BD07868854238D8504908460468C7
:1057A00001E0214604466068A84202D22068002831
:1057B000F7D13868B846844228D00E68206808605F
:1057C00060680836401B10280ED96719780704D086
:1057D000EC2243A14CA000F0BFFC6068401B786045
:1057E00038466560FFF790FF6168D8F804004246CC
:1057F000401AC8F80400D8F80830984200D29060E7
:10580000D8F80C0001430020C4E90001FEF772FE45
:10581000700705D04FF4967231A13BA000F09CFCBC
:105820003046BDE8F08170B500282BD02B4DA0F19B
:105830000804103D6068E968084205D14FF4A07281
:1058400027A131A000F088FC206828B140F2411265
:1058500023A12DA000F080FC6068E968084211D007
:105860002268002A0ED188436060FEF7D1FE60688E
:105870006968084468602046FFF746FFBDE870404D
:10588000FEF738BE70BD15481038406870471348A1
:1058900010388068704770471F484FF480414207B6
:1058A00006D0C01D1C4920F00700411AC1F58041F7
:1058B0000A4A00230144C2E900030839103A21F0E2
:1058C000070111604B600B600B1AC0E90013936075
:1058D0004FF000405360D06070470000EC000020A3
:1058E0002E2E5C2E2E5C4672656552544F535C70B2
:1058F0006F72745C4D656D4D616E675C686561705B
:105900005F342E63000000004572726F723A257397
:105910002C25640D0A0000008806002069484068B4
:10592000401C04D0F42268A171A000F015FC5020A6
:1059300080F31188BFF34F8FBFF36F8FFEE710B571
:10594000031F4FF080741C601B1F21F001011960C0
:10595000191F6B4B0B60143940380A6010BD694841
:105960004FF47A710068B0FBF1F14FF0E020491E6E
:1059700041610721016170471CB5634908780190B6
:10598000FF20087008788DF800009DF800004D4A4F
:1059900000F0500010700720906007E09068401EF3
:1059A00090609DF8000040008DF800009DF8000018
:1059B0000006F3D4107A000200F4E06090600198D1
:1059C00008705248016841F470010160016841F0BB
:1059D00070410160FFF7C3FF00205060FAF7A2FB9F
:1059E00000201CBD37484068B0F57A7F05D04FF4E1
:1059F000B57235A13EA000F0AFBB7047502080F3D8
:105A00001188BFF34F8FBFF36F8F2E494868401C3A
:105A1000486001280BD13D481C38006810F0FF0F8A
:105A200005D04FF4BD7228A131A000F095BB70479E
:105A300010B5244C606828B940F2811222A12CA034
:105A400000F08AFB6068401E606001D180F311881D
:105A500010BD10B5502080F31188BFF34F8FBFF3F6
:105A60006F8FFEF7EAFC20B128494FF080501C39B7
:105A70000860002080F3118810BD10B5FAF788FB8C
:105A8000104C10280CD300F1E02090F8F00321789E
:105A9000884205D24FF42A720BA115A000F05CFBDE
:105AA0001A4814380068A16800F4E060884207D9F9
:105AB000BDE810404FF42E7203A10DA000F04CBBC6
:105AC00010BD0000F40000202E2E5C2E2E5C4672CD
:105AD000656552544F535C706F72745C52564453F8
