:020000040800F2
:10000000604A002099010008F91D0008FB1D000846
:10001000FD1D0008FF1D0008011E00080000000073
:1000200000000000000000000000000001010008C6
:10003000031E00080000000045010008051E00081E
:10004000B3010008B3010008B3010008B3010008C0
:10005000B3010008B3010008B3010008B3010008B0
:10006000B3010008B3010008B3010008B3010008A0
:10007000B3010008B3010008B3010008B301000890
:10008000B3010008B301000803250008B30100080C
:10009000B3010008B3010008B3010008B301000870
:1000A000B3010008B3010008B3010008B301000860
:1000B000B3010008B30100082B300008B3010008A9
:1000C000B3010008B3010008B3010008B301000840
:1000D000B3010008CB2B00088B2E0008B3010008E9
:1000E000B3010008B3010008B3010008DFF80CD029
:1000F00005F076FB00480047091D0008604A002013
:10010000224B19680868B0E8F00F80F30988BFF344
:100110006F8F4FF0000080F311884EF00D0E704786
:100120000000000006480068006880F3088862B696
:1001300061B6BFF34F8FBFF36F8F00DF00BF00BF0B
:1001400008ED00E0EFF30980BFF36F8F0F4B1A68E3
:1001500020E9F00F106008B54FF0500080F31188CF
:10016000BFF34F8FBFF36F8F03F059FF4FF00000C5
:1001700080F31188BDE8084019680868B0E8F00FFE
:1001800080F30988BFF36F8F704700BF64000020C1
:10019000EFF3058070470000064880470648004797
:1001A000FEE7FEE7FEE7FEE7FEE7FEE7FEE7FEE727
:1001B000FEE7FEE75D020008ED0000080CB5002236
:1001C0004C4800920192016841F4803101604FF483
:1001D000A063016801F4003101910099491C00916C
:1001E000019911B900999942F3D10168890333D576
:1001F0000121019140490A6842F010020A600A6830
:1002000022F003020A600A6842F002020A604168B2
:10021000416041684160416841F4806141604168EA
:1002200021F47C114160416841F4E81141600168AA
:1002300041F08071016001688901FCD5416821F0BD
:1002400003014160416841F0020141604168C1F32E
:1002500081010229FAD10CBD01920CBD254810B5CF
:10026000016841F0010101604168244A1140416088
:100270000168234A11400160016821F48021016076
:10028000416821F4FE0141604FF41F018160FFF7D6
:1002900095FF1C494FF00060086010BD154A10B56D
:1002A0005068194B10F00C01184803D0042901D0F4
:1002B000082901D0036012E05168536801F47011FD
:1002C0004FF0020413F4803F04EB914102D05368D5
:1002D0009B0301D50E4B00E00B4B59430160516865
:1002E0000A4AC1F30311121D515C0268CA40026040
:1002F00010BD000000100240002002400000FFF886
:10030000FFFFF6FE08ED00E000127A00000000207A
:1003100000093D002849084328490860704730B566
:100320000F23C27801780125F2B1244A126801F145
:10033000E02102F4E062C2F5E062120AC2F10404B4
:10034000D3404278A24084781C401443220181F8B3
:100350000024007800F01F018D404009800000F16A
:10036000E020C0F8005130BD01F01F008540480971
:10037000800000F1E020C0F8805130BD104A1140EB
:1003800001430E48001F016070470C4A121D0029EE
:10039000116801D0014300E08143116070474FF0C4
:1003A000E0210428086903D020F0040008617047A8
:1003B00040F00400FAE700000000FA050CED00E050
:1003C00080FFFF1FC54910B5884202D101214415A5
:1003D0000AE0C349884202D10121041504E0C14961
:1003E00088420AD10121CC03204600F0B8FC204607
:1003F000BDE81040002100F0B2BC10BD10B542684D
:10040000B94B0C791A400B6842EA0422134343604B
:100410008268B64B1A40D1E9024323434C7942EA41
:10042000440213438360C26A097C22F47002491EAD
:10043000C9B242EA0151C16210BD002101600171DF
:1004400041718160C1600121017470470029816898
:1004500002D041F0010101E021F00101816070470B
:100460000029816802D041F4807101E021F480719B
:1004700081607047002A4268C9B201D00A4300E097
:100480008A4342607047816841F00801816070478B
:10049000014600208968090700D50120704781685E
:1004A00041F00401816070470146002089684907D6
:1004B00000D5012070470029816802D041F4A001D5
:1004C00001E021F4A00181607047014600208968A5
:1004D000490200D5012070474268491E22F460425B
:1004E00042EA4131416070470029416802D041F43D
:1004F000006101E021F400614160704770B507269A
:1005000009290AD9C568A1F10A0404EB4404A640EC
:10051000B543A3401D43C56007E0056901EB4104F5
:10052000A640B543A3401D4305611F23072A09D2F6
:10053000446B521E02EB820293409C4391400C4359
:10054000446370BD0D2A09D2046BD21F02EB8202F4
:1005500093409C4391400C43046370BDC46A0D3AC0
:1005600002EB820293409C4391400C43C46270BDF5
:100570000029816802D041F4801101E021F480114A
:1005800081607047C06C80B2704754484C3000683E
:1005900070470029416802D041F4806101E021F4F4
:1005A0008061416070470029416802D041F4805168
:1005B00001E021F4805141607047826822F4E042FA
:1005C0000A43826070470029816802D041F40041EB
:1005D00001E021F40041816070470029816802D068
:1005E00041F4021101E021F40211816070470146DB
:1005F00000208968890200D50120704770B5072660
:1006000009290AD9C568A1F10A0404EB4404A640EB
:10061000B543A3401D43C56007E0056901EB4104F4
:10062000A640B543A3401D430561836BC3F301544A
:10063000121B921C02EB82021F249440A3439140A0
:100640000B43836370BD826B491E22F4401242EA61
:1006500001518163704708B508440090026008BDED
:1006600008B5084428300090006880B208BD426890
:100670001F4B1A400A4342607047416282627047D2
:10068000426822F01F020A43426070471349083152
:100690000028086802D040F4000001E020F40000C7
:1006A000086070470246002012680A4200D001200C
:1006B0007047C9430160704710B502460020546876
:1006C0000B0AC9B20C401168194202D0002C00D0AC
:1006D000012010BD6FEA1121016070470024014024
:1006E00000280140003C0140FFFEF0FFFDF7F1FF54
:1006F000FFFD3FFF01684FF6FE72114001600021CF
:10070000016041608160C1606A496A4A083990426B
:1007100003D1486840F00F0006E0664A1432904268
:1007200004D1486840F0F00048607047614A2832C0
:10073000904203D1486840F47060F5E75D4A3C326E
:10074000904203D1486840F47040EDE7594A503276
:10075000904203D1486840F47020E5E7554A64327E
:10076000904203D1486840F47000DDE7514A783286
:10077000904203D1486840F07060D5E74E4A111F9F
:10078000904203D1086840F00F0006E04A4A143254
:10079000904204D1086840F0F00008607047464A73
:1007A0002832904203D1086840F47060F5E7424A6D
:1007B0003C32904203D1086840F47040EDE73E4A75
:1007C00050329042EAD1086840F47020E5E730B535
:1007D000026847F6F0739A430C6A8B682343D1E9A9
:1007E00004452C4323438C692343CC6923434C6A3F
:1007F00023438C6A234313430360CA6842600A6838
:1008000082604968C16030BD002101604160816043
:10081000C160016141618161C161016241628162C6
:1008200070470029016802D041F0010102E04FF653
:10083000FE72114001607047002A026801D00A432D
:1008400000E08A430260704741607047406880B2B0
:10085000704702460020D10002D51749083901E04F
:10086000144908390968114200D001207047C100BD
:1008700003D51149091F086070470E4908394860BF
:10088000704702460020D10002D50B49083901E02B
:10089000084908390968114200D001207047C10099
:1008A00003D50549091F08607047024908394860A7
:1008B0007047000008000240080402408F4910B54C
:1008C000884206D10121042000F049FA00210420C9
:1008D0003BE08B49884206D10121082000F03FFA15
:1008E0000021082031E08749884206D101211020EB
:1008F00000F035FA0021102027E08349884206D114
:100900000121202000F02BFA002120201DE07F494A
:10091000884206D10121402000F021FA0021402028
:1009200013E07B49884206D10121802000F017FAAC
:100930000021802009E0774988420AD184150121ED
:10094000204600F00CFA00212046BDE8104000F0DF
:1009500006BA10BD10B50121084600F000FA0021CA
:10096000BDE81040012000F0FAB9F0B5CC780022C3
:1009700004F00F03E40601D58C7823430C784FF084
:100980000F0C14F0FF0F4FF0010E1BD005680E88FE
:100990000EFA02F42640A64210D196000CFA06F791
:1009A00025EA070703FA06F5CE783D43282E02D044
:1009B000482E02D002E0446100E00461521C082A83
:1009C000E5D305600A88FF2A1CD94468002202F199
:1009D00008060EFA06F50E882E40AE420ED196009D
:1009E0000CFA06F7BC4303FA06F7CE783C43282EF0
:1009F00000D14561CE78482E00D10561521C082AED
:100A0000E5D34460F0BD4FF6FF7101800221817093
:100A10000421C17070470246002092680A4200D04B
:100A200001207047806880B2704702460020D2687B
:100A30000A4200D001207047C06880B2704701614F
:100A40007047416170470AB1016170474161704769
:100A5000C160704741F48032826181618261816945
:100A6000806970472C4B10B51A684FF6807422408D
:100A700042EA00100843186010BD2849C861704759
:100A8000F0B5254C002801DAE36900E06368450D04
:100A90002E0185B2C0F30157B540C0F30342032FC6
:100AA00005D0C6020AD503269640B34307E023F0DB
:100AB0007062636823F07063636002E0AB4343F0ED
:100AC000706201B12A43002801DAE261F0BD626080
:100AD000F0BD10B58A0721F003040F49120F21441D
:100AE0000F238C6893409C438C608B689040034339
:100AF0008B6010BD0949C1F8DC0070470008014057
:100B0000000C014000100140001401400018014099
:100B1000001C014000200140000001400000204274
:100B2000A548016841F0010101604168A34A1140F4
:100B300041600168A24A11400160016821F48021EE
:100B40000160416821F4FE0141604FF41F018160A2
:100B5000704799490A6822F480320A600A6822F4D0
:100B600080220A60B0F5803F07D0B0F5802F03D116
:100B7000086840F4A02008607047086840F480309E
:100B8000F9E70346002059098B4A01290AD00229B6
:100B90000AD0516A03F01F02012393400B4200D098
:100BA000012070471168F5E7116AF3E718B50020D6
:100BB0004FF4A06400903120FFF7E3FF0099491C37
:100BC0000091A14201D00028F5D03120FFF7D9FFD4
:100BD000002800D0012018BD774A116821F0F801E3
:100BE00041EAC00010607047764908607047724B58
:100BF0005A68084322F47C121043586070477149C8
:100C0000086670476C4A516821F003010143516046
:100C100070476948406800F00C007047664A5168A8
:100C200021F0F001014351607047634A516821F49B
:100C3000E0610143516070475F4A516821F460519F
:100C400041EAC000506070475B4A0029517A01D0E8
:100C5000014300E08143517270475A49C1F8D800FE
:100C60007047554A516821F4404101435160704733
:100C70005149002281F8202081F82020012802D04B
:100C8000042802D1052081F8200070474E490860F1
:100C9000704749490A6A02430A6270474A4944391F
:100CA0000860704730B5444A5168484B11F00C0158
:100CB00003D0042901D0082901D0036012E0516853
:100CC000536801F470114FF0020413F4803F04EBF9
:100CD000914102D053689B0301D53D4B00E03B4B53
:100CE0005943016051680F2303EA1111394B5C5CD1
:100CF0000168E14041605468072505EA14241C5D41
:100D000021FA04F48460546805EAD4241B5DD940B8
:100D1000C1605268032303EA92322E4B1B1F9A5C78
:100D2000B1FBF2F1016130BD234A0029516901D0C4
:100D3000014300E08143516170471F4A00299169D6
:100D400001D0014300E08143916170471A4A0029B4
:100D5000D16901D0014300E08143D1617047164A57
:100D60000029D16801D0014300E08143D160704780
:100D7000114A0029116901D0014300E0814311614A
:100D8000704711494039086070470E49C864704780
:100D90000949C87170470848416A41F08071416251
:100DA0007047054A0146002092680A4200D001209F
:100DB0007047014988727047001002400000FFF838
:100DC000FFFFF6FE000042428004424200127A0019
:100DD00000093D0018000020F94910B5884202D1F1
:100DE0000121C41486E0B0F1804F09D0F549884252
:100DF0000DD101210220FFF7BBFF0021022064E09A
:100E000001210846FFF7B4FF002101205DE0EE4913
:100E1000884206D101210420FFF7AAFF0021042007
:100E200053E0EA49884206D101210820FFF7A0FFDC
:100E30000021082049E0E649884206D1012110201E
:100E4000FFF796FF002110203FE0E249884206D1DB
:100E500001212020FFF78CFF0021202035E0DE4912
:100E6000884202D10121441444E0DC49884202D185
:100E70000121CC043EE0DA49884202D101210C056F
:100E800038E0D849884202D101214C0532E0D649E8
:100E9000884206D101214020FFF76AFF002140204F
:100EA00013E0D249884206D101218020FFF760FF7C
:100EB0000021802009E0CE4988420AD18415012111
:100EC0002046FFF755FF00212046BDE81040FFF700
:100ED0004FBFC849884202D101210C040AE0C6492B
:100EE000884202D101214C0404E0C44988420AD15D
:100EF00001218C042046FFF732FF2046BDE8104058
:100F00000021FFF72CBF10BD30B50288AC4CB24DAC
:100F1000A0420DD0A8420BD0B0F1804F08D0A94B11
:100F2000984205D0A84B984202D0A84B984203D1D2
:100F300022F070034A881A43A54B984206D0A54B6D
:100F4000984203D022F44073CA881A4302808A88E8
:100F500082850A880285A0420AD0A84208D0A54A04
:100F6000904205D0A44A904202D0A44A904201D1B6
:100F7000097A01860121818230BD30B5028C22F0D0
:100F800001020284028C8388048B22F0020224F086
:100F900073050C882C430D8915434A882A43884DD4
:100FA000A8420BD08C4DA84208D0924DA84205D043
:100FB000914DA84202D0914DA8420DD122F00805D2
:100FC0004A8923F440732A4322F004058A882A437D
:100FD0008D891D43CB892B4383800483C9888186F7
:100FE000028430BD70B5028C22F010020284028CA3
:100FF0008388048B0D8824F4E6464FF6FF7404EAD8
:10100000052535430E8922F0200204EA0616164310
:101010004A8804EA02123243694EB04202D06E4E50
:10102000B04215D122F080064A8923F4406304EAD5
:101030000212324322F040068A8804EA0212324346
:101040008E8904EA86061E43CB8904EA8303334370
:1010500083800583C9880187028470BD70B5028CC6
:1010600022F480720284028C8388848B0D8824F0A1
:10107000730425430E894FF6FF7422F4007204EACC
:10108000062616434A8804EA022232434C4EB042F6
:1010900002D0514EB04215D122F400664A8923F4A1
:1010A000405304EA0222324322F480668A8804EA2A
:1010B000022232438E8904EA06161E43CB8904EAD3
:1010C0000313334383808583C9888187028470BD7D
:1010D00070B5028C22F480520284058C8288838B46
:1010E0000C8823F4E6464FF6FF7303EA04243443E6
:1010F00025F400560D8903EA053535434E8803EA89
:1011000006362E432E4DA84202D0334DA84205D1BB
:1011100022F480458A8903EA82122A4382808483EA
:10112000C988A0F84010068470BD828B22F440620A
:101130008283828B4FF6FF7303EA01210A43828385
:101140007047828B22F00C028283828B0A43828357
:101150007047028B22F440620283028B4FF6FF73CA
:1011600003EA01210A4302837047F0B5048C24F09E
:1011700010040484078B048C4FF6FF7527F4734723
:1011800005EA03333B4305EA02221A430C4B05EA06
:10119000011698420ED0104B98420BD0B0F1804F00
:1011A00008D0084B984205D0074B984202D0074B15
:1011B000984225D124F02001314341F0100124E070
:1011C000002C01400004004000080040000C0040DA
:1011D000001000400014004000340140004C014069
:1011E000005001400054014000180040001C004025
:1011F0000020004000400140004401400048014000
:1012000024F0A0030B4343F0100102830184F0BDDE
:10121000028B22F00C020283028B0A430283704786
:1012200070B5048C24F001040484058B048C4FF603
:10123000FF7606EA0313134325F0F305F84A2B4320
:1012400090420ED0F74A90420BD0B0F1804F08D0B8
:10125000F54A904205D0F54A904202D0F44A9042B5
:1012600002D124F0020201E024F00A020A4342F013
:1012700001010383018470BD2DE9F84F0D4604463A
:101280000888E74FDFF89CC3DFF89C83DFF89C9366
:101290004988AA882B894FF0804A48B304282FD068
:1012A0004FF6FF760828934632D0208C9E4620F4D5
:1012B00080502084A38B208C06EA0132009223F414
:1012C000734306EA0B221A4306EA0E331343BC4269
:1012D0000AD0644508D0544506D0444504D04C4556
:1012E00002D0D34A944242D120F40050009940E009
:1012F0002046FFF795FFE9882046BDE8F84F87E7CD
:101300002046FFF732FFE9882046BDE8F84F20E786
:10131000208C20F480702084B4F81CE0208C06EA35
:10132000031306EA01222EF0F30E43EA0B0343EA0D
:101330000E030092BC420AD0644508D0544506D042
:10134000444504D04C4502D0B94A944203D120F41C
:101350000070009901E020F42060084340F48070A0
:10136000A3832084E9882046BDE8F84FE9E620F40D
:101370000240084340F48050A3832084E98820463B
:10138000BDE8F84FD1E62DE9F0410C46002649882A
:101390000746012501B90226A288012A00D10225AB
:1013A000208823890028384610D0FFF7DEFEE18828
:1013B0003846FFF7CEFE23892A4631463846FFF7E6
:1013C0002FFFE1883846BDE8F04121E7FFF728FF0D
:1013D000E1883846FFF71CFF23892A463146384604
:1013E000FFF7C3FEE1883846BDE8F041B1E610B52D
:1013F0000A884B88CC881A438B8823431A430B896D
:101400001A434B8989891A430A43A0F8442010BD26
:101410004FF6FF71818000210180C18041800172FF
:1014200070470021018041808180C180018141811C
:101430008181C18170470021018041800122828029
:10144000C180018170470021018041808180C1807D
:1014500001814181818170470029018802D041F0DA
:10146000010101E021F0010101807047002930F8FD
:10147000441F02D041F4004101E0C1F30E0101809C
:101480007047002A828901D00A4300E08A438281A2
:101490007047818270471143A0F848107047002AB6
:1014A000828901D00A4300E08A4382817047018922
:1014B00021F0070101817047028922F070020A437E
:1014C0000281704700B50346FFF7F6FF188940F028
:1014D0000700188100BD70B516460D466029044608
:1014E0004FF0010231460AD0FFF79AFE2946204606
:1014F000FFF7E2FF208940F00700208170BDFFF771
:1015000034FEF3E730B504894FF6FF7505EA03238F
:101510001343E4B20B432343038130BD10B50446AB
:10152000FFF7F0FF208940F07700208110BD10B553
:101530000446FFF7E7FF208940F48040208110BD7A
:10154000018582827047028822F070020A4302807D
:10155000704770B50589048B068C25F007050D438F
:101560004FF6FC410C4040F201110C434FF6FF7165
:1015700001EA031126F02206114331430581048359
:10158000018470BD028B22F070020A43028370470F
:10159000028B4FF6FF7322F4E04203EA012111436C
:1015A00001837047828B22F070020A438283704766
:1015B000828B4FF6FF7322F4E04203EA01211143CC
:1015C000818370470029018802D041F0800101E049
:1015D00021F08001018070470029818802D041F00C
:1015E000040101E021F00401818070470029818815
:1015F00002D041F0080101E021F00801818070472C
:101600000029818802D041F0010101E021F00101AF
:1016100081807047028B22F008020A4302837047E0
:10162000002C01400034014000040040000800404C
:10163000000C0040028B4FF6FF7322F4006203EAB5
:10164000012111430183EAE7828B22F008020A4359
:101650008283E4E7828B4FF6FF7322F4006203EA91
:10166000012111438183DAE7028B22F004020A434D
:101670000283D4E7028B4FF6FF7322F4806203EA01
:10168000012111430183CAE7828B22F004020A433D
:101690008283C4E7828B4FF6FF7322F4806203EAF1
:1016A000012111438183BAE7028B22F080020A43B1
:1016B0000283B4E7028B4FF6FF73C2F30E0203EA14
:1016C000012111430183AAE7828B22F080020A43A1
:1016D0008283A4E7828B4FF6FF73C2F30E0203EA04
:1016E0000121114381839AE7028C22F002020A430E
:1016F000028494E7028C22F008020A4302848EE7F7
:10170000028C4FF6FF7322F0200203EA011111430D
:10171000018484E7028C4FF6FF7322F0800203EA13
:101720000111114301847AE7028C4FF6FF7322F412
:10173000007203EA01211143018470E7028C4FF625
:10174000FF7322F4006203EA01211143018466E77A
:10175000028C4FF6FF7322F4005203EA0131114369
:1017600001845CE710B50123048C8B409C43048406
:10177000038C8A401343038410BD10B50423048CEA
:101780008B409C430484038C8A401343038410BD24
:1017900030B50124058C00F118038C40A543058465
:1017A00089B108290FD0091FC1F34E001844016800
:1017B00021F4E041016001684FF6FF7303EA022261
:1017C0001143016030BD03EB5100016821F070014D
:1017D00001600168F4E70029018802D041F00201AC
:1017E00001E021F00201018019E70029018802D0FF
:1017F00041F0040101E021F0040101800FE700291C
:10180000818802D041F0800101E021F080018180D7
:1018100005E7028822F00802028002880A4302805B
:10182000FDE6828822F07002828082880A438280EC
:10183000F5E6028922F00702028102890A43028149
:10184000EDE6028922F08002028102890A430281C8
:10185000E5E68184E3E68185E1E68186DFE60187CE
:10186000DDE68187DBE6A0F84010D8E6028822F4A6
:101870004072028002880A430280D0E6808ECEE663
:10188000008FCCE6808FCAE6B0F84000C7E6808CB7
:10189000C5E6008DC3E602460020128A0A4200D047
:1018A0000120BCE6C9430182B9E602460020138A42
:1018B00092890B4202EA010202D0002A00D00120E4
:1018C000ADE6C9430182AAE6C44910B588420AD1EF
:1018D00001218C032046FFF742FA2046BDE8104064
:1018E0000021FFF73CBABE49884202D101214C04D5
:1018F00010E0BC49884202D101218C040AE0BA49B7
:10190000884202D10121CC0404E0B84988420AD1BE
:1019100001210C052046FFF72BFA2046BDE81040B8
:101920000021FFF725BA10BD30B50446008A85B006
:101930000D464CF6FF710840E98801432182A089D9
:101940004EF6F3110840A9882A8911436A89024397
:101950001143A181A08A4FF6FF410840A9890143A4
:10196000A1826846FFF79EF99C48844201D1039802
:1019700000E00298A189090400EBC00101EB00100E
:10198000296801D5490000E08900B0FBF1F064222C
:10199000B0FBF2F109010B096FF018056B4300EB86
:1019A0008300A3891D044FF0320306D503EBC0006A
:1019B000B0FBF2F000F0070005E003EB0010B0FB15
:1019C000F2F000F00F000843208105B030BD4FF465
:1019D0001651016000218180C18001810C22428169
:1019E0008181704710B5028A4FF2FF031A400B88BD
:1019F0004C8823438C88C9880C43234313430382B8
:101A000010BD0021018041808180C1807047002984
:101A1000818902D041F4005101E021F4005181811B
:101A2000704710B5C1F3421301F01F040121A1401A
:101A3000012B07D0022B07D01430002A026805D0F2
:101A40000A4304E00C30F8E71030F6E78A430260FE
:101A500010BD002A828A01D00A4300E08A438282B4
:101A60007047028A22F00F020282028A0A4302822F
:101A70007047828922F40062828182890A438281CE
:101A800070470029818902D041F0020101E021F074
:101A9000020181817047028A22F020020282028ABA
:101AA0000A43028270470029018A02D041F4804132
:101AB00001E021F4804101827047C1F30801818077
:101AC00070478088C0F308007047818941F00101A8
:101AD00081817047028BD2B20283028B42EA0121DC
:101AE00001837047028B02F47F420283028B0A4318
:101AF000028370470029818A02D041F0200101E071
:101B000021F02001818270470029818A02D041F0B2
:101B1000100101E021F01001818270470029818AC3
:101B200002D041F0080101E021F0080181827047F4
:101B30000029818902D041F4004101E0C1F30E0186
:101B4000818170470029818A02D041F4006101E05F
:101B500021F4006181827047828A22F0040282822D
:101B6000828A0A43828270470029818A02D041F02A
:101B7000020101E021F0020181827047024600204B
:101B800012880A4200D001207047C9430180704783
:101B900070B501F01F0501260024C1F3421306FAB7
:101BA00005F2012B0FD0022B0FD0838A4FEA1121AF
:101BB0000088134206FA01F600EA060001D000B1DF
:101BC0000124204670BD8389F0E7038AEEE70A0A04
:101BD00001219140C9430180704700000038014055
:101BE0000044004000480040004C004000500040CD
:101BF0005D494FF4005008615CA001F077B900F036
:101C0000A9FA642002F043F9F9E700255C4C01F0E1
:101C100082FA2070642002F03AF92570F7E708B5DF
:101C20004FF47A7002F033F900F054FA4FF4FA608E
:101C300002F02DF94C4EDFF84C81534C4FF4005517
:101C400001274FF00009002000F001FA012821D1FE
:101C500075614EA001F04AF902E0642002F017F924
:101C6000002000F0F4F90128F7D0606990B10097E6
:101C700000230421D8F8002002F0E6FE606948B194
:101C800002F032FB0246CDF800900023012160698A
:101C900002F0DAFEC82002F0FAF8D4E77CB503F0CF
:101CA00081FA39490420091DC501CDE9000100234D
:101CB0002A463BA13D4801F024FF33480224083066
:101CC000CDE9004000232A4639A13C4801F019FF24
:101CD0002D4800230C30CDE900402A4638A13B486E
:101CE00001F00FFF3A4800900123002241F28831B1
:101CF00038A002F076FF24494861086801F02CFF03
:101D0000BDE87C4003F068BA1CB5FEF7A7FA4FF4B3
:101D10004070FEF7FFFA482000F010F900F07CF860
:101D200000F096F800F0EEFF01F02AF900F069FEED
:101D300000F0C8FB04210022084601F097FA12497E
:101D4000002308610120CDE90001420225A12948B4
:101D500001F0D7FE012804D000F02AF94FF0FF303F
:101D60001CBD02F074FAF9E700100140706167656C
:101D7000302E74352E7478743D22B9D822000000BC
:101D8000480000204C00002028000020706167659A
:101D9000302E74352E7478743D22BFAA22000000C4
:101DA0004D61696E5F5461736B0000001F1C000879
:101DB0004144435F5461736B000000000B1C00083A
:101DC0004C43445F5461736B00000000FF1B00082C
:101DD000F11B00084F6E6553686F7454696D65722E
:101DE000000000004170705461736B437265617450
:101DF000650000009D1C00087047FEE7FEE7FEE757
:101E0000FEE7704710B502F09DFB012803D0BDE846
:101E1000104003F0F2B910BD38B501211020FEF7D3
:101E20008CFF4FF40054ADF8004010208DF80300F3
:101E30000320064D8DF8020069462846FEF795FD01
:101E400021462846FEF7FBFD38BD0000001001408A
:101E5000F8B501210C20FEF770FF0124ADF8004019
:101E60008DF8024048208DF8030069463148FEF79E
:101E70007CFDA002ADF800002F4E8DF80240282511
:101E80008DF8035069463046FEF76FFD01210820AA
:101E9000FEF753FFE002ADF800008DF802408DF828
:101EA000035069463046FEF760FDF8BD70B50C463C
:101EB0000546FEF7B0FD38B9642001F0E8FF214681
:101EC0002846FEF7A8FD08B1012070BD214628462E
:101ED000FEF7A1FD0028F9D0002070BD70B50C46BA
:101EE0000546FEF798FD012808D1642001F0CFFFD8
:101EF00021462846FEF78FFD012800D0002070BD46
:101F000070B50C460546FEF786FD012808D1642011
:101F100001F0BDFF21462846FEF77DFD012801D0D6
:101F2000002070BD21462846FEF775FD0128F9D036
:101F3000012070BD00080140000C014010B50446AE
:101F40006FF00400FEF72BFA1849E00800EB40029E
:101F50000870C2EBC0104FF6FF7202EAC000488062
:101F600010BD1249498848434FF0E02148610023E1
:101F70008B61012008610869C20701D0C003FAD54E
:101F80000B618B6170470949097848434FF0E021A4
:101F9000486100238B61012008610869C20701D0F4
:101FA000C003FAD50B618B61704700004000002030
:101FB000BFF3408FFC480168FC4A01F4E061114323
:101FC0000160BFF3408FFEE72DE9F041F84C206936
:101FD00003F0E8FAF74E4FF066352A46334603F031
:101FE0004BFA0022F44B03F0D5F903F0C2FAC1B268
:101FF000A079401CC0B2A0710A2807D1EFA003F05D
:1020000011FCFF2000F05DFF0020A07120786178B6
:10201000401A03F0A0FA0746A07803F0A5FA394663
:1020200003F06EF903F0BEFA2A46334603F0B2F924
:1020300005460E46206903F0B5FA2A46334603F0FA
:10204000C5FA02D20120BDE8F0810020FBE770B59F
:10205000DE4A4FF4006420B121461046FFF73EFFF0
:1020600012E04FF4806115461046FFF737FF012854
:102070000DD021462846FFF731FF012807D0CC4874
:10208000807818B1FFF7A0FF012800D0002070BDB4
:1020900008B5A02000F0AAFA012819D0C4484FF4CE
:1020A0007A72816891FBF2F18DF8001001788DF859
:1020B000011041788DF8021080788DF80300042219
:1020C0000021684600F0E8FA002800D0012008BD91
:1020D000002008BD38B5A02000F088FA012837D0CC
:1020E00004220021684600F0A2FA00282FD09DF8B3
:1020F0000000AF4C4FF47A714843A0609DF8011086
:1021000021709DF8021061709DF80310A1704FF4CA
:102110007A7190FBF1F1AEA003F084FBFF2000F098
:10212000D0FEA178AEA003F07DFBFF2000F0C9FE39
:102130002178AFA003F076FBFF2000F0C2FE6178AB
:10214000AFA003F06FFBFF2000F0BBFE012038BD05
:10215000002038BD70B5964CE07860B92079E2284F
:1021600076D1ABA000F0C2FE02E0142001F08FFE99
:102170002079E228F9D0E0786325002601285BD198
:102180002079022813D1E068401CE060632800DD5C
:10219000E5608FA0E16803F045FBFF2000F091FEB1
:1021A00002E0142001F073FE20790228F9D0C0B2B9
:1021B000982813D1E068401EE060002800DCE6604B
:1021C00083A0E16803F02EFBFF2000F07AFE02E01E
:1021D000142001F05CFE20799828F9D0C0B2C22802
:1021E00009D18DA000F082FE02E0142001F04FFE24
:1021F0002079C228F9D0C0B2902809D188A000F077
:1022000075FE02E0142001F042FE20799028F9D0FA
:10221000C0B2E22810D180A000F068FEE0684FF460
:102220007A714843A060FFF733FF02E0142001F009
:102230002EFE2079E228F9D0E078022808D1207912
:1022400030280CD178A000F051FE0120607103E02D
:102250002FE1142001F01BFE20793028F9D0C0B204
:1022600018280BD174A000F041FE0220607102E03A
:10227000142001F00CFE20791828F9D0C0B27A2879
:102280000BD171A000F032FE0320607102E0142037
:1022900001F0FDFD20797A28F9D0607901282BD151
:1022A0002079022814D1A078401CC0B2A070632805
:1022B00000D9A570A1784AA003F0B4FAFF2000F07D
:1022C00000FE02E0142001F0E2FD20790228F9D09E
:1022D000C0B2982810D1A078401EC1B2A17040A011
:1022E00003F0A0FAFF2000F0ECFD02E0142001F062
:1022F000CEFD20799828F9D0607902282BD1207959
:10230000022814D12078401CC0B22070632800D964
:102310002570217836A003F085FAFF2000F0D1FD6A
:1023200002E0142001F0B3FD20790228F9D0C0B2F8
:10233000982810D12078401EC1B221702CA003F043
:1023400071FAFF2000F0BDFD02E0142001F09FFDB6
:1023500020799828F9D0607903287DD12079022846
:1023600014D16078401CC0B26070632800D96570D9
:10237000617823A003F056FAFF2000F0A2FD02E0EE
:10238000142001F084FD20790228F9D0C0B29828E9
:1023900069D16078401EC1B2617019A003F042FAA1
:1023A000FF2000F08EFD5BE00CED00E00400FA057C
:1023B0004400002066660A4000005940706167656D
:1023C000302E6E302E76616C3D256400000C01408D
:1023D00070616765312E6E302E76616C3D2564002C
:1023E00070616765322E6E302E76616C3D2564001B
:1023F00070616765322E6E312E76616C3D2564000A
:1024000070616765322E6E322E76616C3D256400F8
:1024100070616765203100007061676520300000E1
:10242000706167652032000070616765322E7661E9
:10243000302E76616C3D310070616765322E7661B9
:10244000302E76616C3D320070616765322E7661A8
:10245000302E76616C3D330005E0142001F017FD4D
:1024600020799828F9D02079E22810D1667111A03E
:1024700000F03CFDFFF70CFEAFF2640000F036FD0B
:1024800002E0142001F003FD2079E228F9D0C0B267
:10249000C2280ED1667107A000F028FDAFF28800B7
:1024A00000F024FD02E0142001F0F1FC2079C228A4
:1024B000F9D070BD70616765322E7661302E76611D
:1024C0006C3D300038B501210820FEF736FC0124B0
:1024D000ADF8004000258DF8035069463E48FEF7F0
:1024E00044FA00F036F812208DF8000004208DF830
:1024F00001008DF802508DF803406846FDF70FFF8C
:1025000038BD70B5354D4FF4087421462846FEF7A6
:10251000D3F8012817D12846FEF734F80146304891
:102520000180008803F020F86FF00B0102F026FF15
:1025300003F038F84FF066322A4B02F02BFF03F01D
:102540005DF82949086021462846BDE87040FEF73D
:10255000C1B810B5012186B04802FEF7EEFB00229B
:102560004FF460200121CDE902028DF804201B4CBC
:102570008DF805108DF81010009269462046FDF781
:102580003DFF4FF44040FEF76CFB0523012208217C
:102590002046FDF7B3FF01224FF408712046FDF7F6
:1025A00069FF01212046FDF751FF2046FDF76BFF33
:1025B0002046FDF76DFF0028FAD12046FDF76FFF9A
:1025C0002046FDF771FF0028FAD101212046FDF7D2
:1025D00072FF06B010BD0000000C01400024014055
:1025E0005800002066660A405400002010B50446DA
:1025F00000F05EF9204600F07BF900F0C3F90446D4
:1026000000F069F900F0ECF9204610BD70B5002427
:102610004FF4803505E02046641CA84201D3012018
:1026200070BDA020FFF7E2FF0028F4D170BD2DE9B6
:10263000F04115460C46074600F03AF9A02000F09C
:1026400057F900F09FF968B9E0B200F051F900F0D5
:1026500099F938B900F02CF9A12000F049F900F0FF
:1026600091F920B100F037F90020BDE8F081002495
:102670006E1E0BE000F065F93855B44202D000F050
:102680009BF901E000F0ACF9641CA4B2AC42F1D3B8
:1026900000F021F90120E8E72DE9F04790460E46C9
:1026A000814600254FF47A7724E00DB1700716D1EA
:1026B00000F011F9002400F0FBF8A02000F018F958
:1026C00000F060F918B1641CA4B2BC42F3D3BC4260
:1026D0001BD0F0B200F00CF900F054F9A8B919F8C9
:1026E000050000F005F900F04DF970B9761C6D1C7D
:1026F000B6B2ADB24545D8D300F0EDF8FFF786FF8E
:10270000012802D00120BDE8F08700F0E4F80020A5
:10271000F9E708B500206A46FF211154401C80B239
:102720000428FAD3042200216846FFF7B5FF18B148
:1027300026A003F077F808BD29A0FAE77CB5A02011
:10274000FFF754FF012828D000206D462854401C74
:1027500080B20428FAD3042200212846FFF79CFF08
:1027600000281CD023A003F05DF80422002101A85A
:10277000FFF75DFF002814D023A003F053F80024D6
:1027800001AE285D315D81420DD026A003F04AF8EC
:1027900026A003F047F800207CBD2DA0F9E732A069
:1027A000F7E736A0F5E73AA003F03CF8E04300076E
:1027B00002D10AA003F036F8641CA4B2042CE0D3C2
:1027C00035A003F02FF801207CBD0000B2C1B3FD9D
:1027D000656570726F6DB3C9B9A6A3A10D0A00003B
:1027E000B2C1B3FD656570726F6DB3F6B4EDA3A1B0
:1027F0000D0A0000D0B4656570726F6DB3C9B9A6DB
:10280000A3A10D0A00000000B6C1656570726F6D6E
:10281000B3C9B9A6A3ACCAFDBEDDC8E7CFC2A3BA8F
:102820000D0A00003078253032582000B4EDCEF388
:102830003A454550524F4DB6C1B3F6D3EBD0B4C86C
:10284000EBB5C4CAFDBEDDB2BBD2BBD6C200000030
:10285000C3BBD3D0BCECB2E2B5BDB4AED0D045451D
:1028600050524F4D210D0A00D0B4656570726F6DE6
:10287000B3F6B4EDA3A10D0A00000000B6C1656572
:1028800070726F6DB3F6B4EDA3A10D0A00000000E5
:102890002025303258000000656570726F6DB6C13A
:1028A000D0B4B2E2CAD4B3C9B9A60D0A0000000080
:1028B00070B562484FF4007606600515056000F0BB
:1028C000B7F85E4C241D266000F0B2F82560BDE824
:1028D000704000F0ADB870B558484FF40074001D5A
:1028E0000460564D0015286000F0A2F82C6070BD01
:1028F0002DE9F047DFF84491504E0546002409F1D8
:1029000004094FF480674FF400782806404601D54B
:10291000306001E0C9F8000000F08AF8376000F08C
:1029200087F8C9F80070072C01D1C6F80080680646
:10293000050E00F07DF8641CE4B2082CE5D3BDE878
:10294000F0872DE9F0473D4F0024DFF8F080254661
:10295000A8F108083E1507F104096006040E3E6060
:1029600000F066F8D8F80000800501D5641CE4B2D8
:10297000C9F8006000F05CF86D1CEDB2082DECD3D6
:102980002046DCE770B52D4C4FF40070206000F05D
:102990004FF82515256000F04BF8284808380068E6
:1029A000800501D5012400E000242448001D0560B5
:1029B00000F03EF8204670BD2DE9F0411F4E4FF467
:1029C0000075361D356000F033F8371F6C003C6031
:1029D00000F02EF8346000F02BF83D60BDE8F08187
:1029E00070B5164D4FF40070286000F021F82C15DA
:1029F0002C6000F01DF8281D0460BDE8704000F058
:102A000017B808B501210420FEF797F94FF4C0600C
:102A1000ADF8000003208DF8020014208DF80300AB
:102A2000064869461038FDF7A0FFFFF754FF08BDC0
:102A30000020401CC0B20A28FBD370471008014098
:102A40002DE9F04190B001210420FEF776F9012133
:102A50008803FEF772F94FF40070ADF83C001820BF
:102A60008DF83F0003209E4C8DF83E000FA92046B4
:102A7000FDF77BFF2115ADF83C1004218DF83F10C8
:102A80000FA92046FDF771FF00244FF4E1300B90B1
:102A9000ADF834400C20DFF84C82ADF83040ADF892
:102AA0003600ADF83240ADF838400BA94046FEF78D
:102AB0003BFF4FF44070FDF72DFC25208DF8000002
:102AC00006208DF801008DF8024001208DF80300EA
:102AD0006846FDF724FC012240F224414046FEF7FF
:102AE000A0FF012240214046FEF7B3FF0121084626
:102AF000FEF71AF908F104067B480096CDE90104B7
:102B000003A9FF20802581E8310020200694CDE92B
:102B100007404FF44050CDE90904744F69463846E8
:102B2000FDF755FEA802FDF7A2FE01220821384656
:102B3000FDF782FE01213846FDF773FE01210846AC
:102B4000FEF7F2F8684803A91438CDE900601020B8
:102B50000290142081E831006801CDE90840069414
:102B600007940A94614C6946143C2046FDF72FFEF9
:102B700001212046FDF755FE01214046FEF747FFA3
:102B800010B0BDE8F08170B5584E574C002130466A
:102B9000FDF747FE3046FDF759FEC0F1FF0521461F
:102BA00053A002F03FFE2946204602F09EFB4FF460
:102BB0000030FDF75CFE4D49FF205839C8653046AE
:102BC000BDE870400121FDF72CBE10B5454C40F228
:102BD00024412046FEF7DCFF002806D0FFF7D3FF94
:102BE0002046BDE81040FEF76CBF10BD10B504468E
:102BF000FEF763FF80212046FEF7C0FF0028F9D0D2
:102C000010BD2DE9F04115460E460746002405E0AB
:102C1000315D3846FFF7EAFF641CE4B2AC42F7D3FB
:102C200040213846FEF7AAFF0028F9D0A9E770B581
:102C30000D46064600243046295DFFF7D7FF641C89
:102C4000285D0028F7D140213046FEF797FF002885
:102C5000F9D070BD70B50446080ACDB201462046D1
:102C6000FEF72BFF80212046FEF788FF0028F9D0D1
:102C700029462046FEF721FF80212046FEF77EFFF1
:102C80000028F9D070BD70B51D4D0446C1B228466C
:102C9000FEF713FF80212846FEF770FF0028F9D0C9
:102CA000204670BD10B5164C20212046FEF766FF69
:102CB0000028F9D02046BDE81040FEF702BF2DE9FC
:102CC000F0410D4606460024064F05E0315D3846CA
:102CD000FFF78CFF641CA4B2AC42F7D351E70000AD
:102CE0000008014000380140F00000205800024078
:102CF000BDD3CAD5B5BDD7D6B7FBA3BA25730A00D5
:102D0000004400402DE9F04391B001210420FEF77A
:102D100014F84FF4003901214846FEF717F804244F
:102D2000ADF83C4018208DF83F000320874D8DF80A
:102D30003E000FA92846FDF718FE0821ADF83C100B
:102D40008DF83F400FA92846FDF70FFE00244FF4F1
:102D5000E1300B90ADF834400C20DFF8F481ADF891
:102D60003040ADF83600ADF83240ADF838400BA930
:102D70004046FEF7D9FD4FF44070FDF7CBFA262010
:102D80008DF800008DF801408DF8024001208DF88B
:102D900003006846FDF7C3FA012240F22441404691
:102DA000FEF73FFE012240214046FEF752FE012180
:102DB0000846FDF7B9FF08F1040666480096CDE91C
:102DC000010403A9FF20802581E83100202006941A
:102DD000CDE907404FF44050CDE909045E4F694604
:102DE0003846FDF7F4FC4846FDF741FD0122082175
:102DF0003846FDF721FD01213846FDF712FD01217E
:102E00000846FDF791FF534803A91438CDE9006047
:102E100010200290142081E831006801CDE90840BB
:102E2000069407940A944C4C694614342046FDF7E6
:102E3000CEFC01212046FDF7F4FC01214046FEF7BF
:102E4000E6FD11B0BDE8F08370B5434E414C002162
:102E50003046FDF7E6FC3046FDF7F8FCC0F1FF0513
:102E6000204600F07BF82946204602F03EFA4FF457
:102E70000030FDF7FCFC3849FF206C39086730460C
:102E8000BDE870400121FDF7CCBC10B5304C40F2DC
:102E900024412046FEF77CFE002806D0FFF7D4FF31
:102EA0002046BDE81040FEF70CBE10BD10B504462C
:102EB000FEF703FE80212046FEF760FE0028F9D0D1
:102EC00010BD70B5224E05460024002D0DD02946B8
:102ED0003046FEF7F2FD80213046FEF74FFE002817
:102EE000F9D0641CE4B2032CEFD370BD70B5184E5A
:102EF000054600243046295DFFF7D8FF641C285D95
:102F00000028F7D140213046FEF738FE0028F9D0DE
:102F1000BDE87040FF20D4E70E4A10B500203121F3
:102F2000143A1154401C1428FBDB0B4C00211434C0
:102F30002046FDF776FC084A14216C3AC2F884104A
:102F40002046BDE810400121FDF76BBC00080140A0
:102F500000440040030200206C0002400078074952
:102F6000302806D0312806D0322801D1022008703E
:102F700070470020FBE70120F9E700004700002030
:102F8000F0B589B001210820FDF7D7FE012104200A
:102F9000FDF7DCFE4FF40074ADF81C4028208DF8DE
:102FA0001F006C4D03268DF81E6007A92846FDF70B
:102FB000DCFC21462846FDF742FD42F21070ADF8D8
:102FC00010004720ADF80C000024634FADF812400C
:102FD000ADF80E4003A93846FDF796FF0C20ADF87A
:102FE00000000125ADF80450ADF80240ADF80640F0
:102FF000ADF8086069463846FEF73EF901213846CB
:10300000FEF72AFA1E208DF818008DF819508DF859
:103010001A408DF81B5006A8FDF781F901221121F5
:103020003846FEF72EFA09B0F0BD70B54A4D0121C1
:103030002846FEF73AFC494CA8B12078010612D583
:1030400020F010012170080702D141F040002070EB
:10305000217801F00F000E2802D2491C217002E0F5
:1030600001F07000207010212846FEF71EFC90B37E
:103070003B48D0F8240158B102212846FEF768FBEE
:1030800000212846FEF7E5FB207840F010003BE0E9
:103090002846FEF7F9FB608000212846FEF758FB22
:1030A0002178C8062DD50A0662884FF4F9701ED51E
:1030B000A2F22D13834202D86068400009E0A2F218
:1030C00079504FF4C773984206D86068400040F0CA
:1030D0000100606015E018E0A2F699029A4210D84B
:1030E0006078401C607001F0F000207009E0A2F5EB
:1030F0008052693A824204D841F08000207000205A
:103100006070207820F0100020702846BDE87040E4
:103110001121FEF7D6BB30B5104C0020237859069C
:1031200016D561686FEA11450A0EEDB295420AD1D3
:103130004AB9C1F30722C943C9B2914203D1100071
:1031400001D0190604D423F04001217000216170E0
:1031500030BD0000000C0140000800405C00002071
:103160000080214200F108014FF0FF32C0E9011256
:10317000C160016100210160704700210161704759
:1031800042684A6093688B609368596091600861F7
:103190000168491C0160704730B50C68621C02D0A0
:1031A00000F1080202E0026904E01A4653681D6853
:1031B000A542FAD953684B6099608A6051600861F2
:1031C0000168491C016030BDD0E9013201699A6093
:1031D000D0E901235A604A68824201D182684A607C
:1031E000002202610868401E0860704770B50D46F5
:1031F000040005D140F21B12F7A1FEA002F012FB61
:1032000001F0D0FFD4E90F20216802FB00116160BA
:103210000021A1632168A1600A46D4E90F01401E84
:1032200000FB0121E16021464FF0FF3001F8440F1F
:10323000487004F110004DB1FFF794FF04F1240031
:10324000FFF790FF01F0C8FF012070BD2169002940
:10325000F8D001F0C1F80028F4D0EA494FF08050CE
:103260000860BFF34F8FBFF36F8FEBE770B50E466B
:10327000050005D14FF4C472D7A1DEA002F0D2FA46
:1032800096B105FB06F0483001F036FE040009D087
:1032900004F1480120464EB10160C0E90F560121FA
:1032A000FFF7A4FF204670BD0020ECE70060F4E7C4
:1032B0002DE9F041044601F075FF94F9455004F101
:1032C000240609E0606A48B1304601F085F808B18B
:1032D00001F034F96D1E6DB2002DF3DC4FF0FF36B6
:1032E00084F8456001F078FF01F05CFF94F94450E8
:1032F00004F1100709E0206948B1384601F06CF884
:1033000008B101F01BF96D1E6DB2002DF3DC84F8DD
:103310004460BDE8F04101F05FBF2DE9F041856BED
:10332000164604460027026CFAB17EB1E06801F04F
:10333000C3FFE168206C091AE1602268914202D261
:103340006168081AE060022E0DD00EE0A06801F05E
:10335000B3FF216CA0680844A0606168884204D370
:103360002068A06001E005B16D1E6D1CA5633846A4
:10337000BDE8F0812DE9FF4F83B01F468B46040066
:103380004FF0000605D140F2D92293A199A002F096
:1033900049FABBF1000F07D1206C28B140F2DA22C4
:1033A0008DA194A002F03EFA022F08D1E06B012813
:1033B00005D040F2DB2288A18EA002F033FA01F0A2
:1033C000C1F838B9059828B140F2DE2282A189A05F
:1033D00002F028FA4FF0000A4FF08058DFF82492EC
:1033E00001F0E0FEA06BE16B884205D3022F03D011
:1033F0000598C8B1DEB11EE03A4659462046FFF7AF
:103400008CFF616A19B104F1240000F0E5FF28B1D6
:10341000C9F80080BFF34F8FBFF36F8F01F0DCFE60
:10342000012007B0BDE8F08F01F0D6FE21E068462C
:1034300001F040F8012601F0CFFE00F0C5FC01F0DC
:10344000B1FE94F94400401C01D184F844A094F9E1
:103450004500401C01D184F845A001F0BDFE05A93E
:10346000684601F038F830B12046FFF721FF00F040
:103470001DFC0020D5E701F095FEA06BE16B8842B2
:1034800001D1012500E0002501F0A6FE95B104F16F
:103490001000059900F047FF2046FFF709FF00F0F4
:1034A00005FC00289CD1C9F80080BFF34F8FBFF303
:1034B0006F8F95E72046FFF7FBFE00F0F7FB8FE7E5
:1034C0002DE9F0471F4690468946040005D140F299
:1034D0009F3241A147A002F0A5F9B9F1000F07D131
:1034E000206C28B14FF468723BA142A002F09AF917
:1034F000022F08D1E06B012805D040F2A13236A19D
:103500003CA002F08FF901F08CFE5020EFF3118601
:1035100080F31188BFF34F8FBFF36F8FA06BE16B08
:10352000884206D3022F04D0002086F31188BDE81C
:10353000F08794F945503A4649462046FFF7EDFE9C
:10354000681C04D06D1C84F845500120EDE7606ACA
:103550000028FAD004F1240000F03EFF0028F4D047
:10356000B8F1000FF1D00121C8F80010EDE770B5F7
:103570000E46040005D140F23C4217A11DA002F006
:1035800051F9206C28B14FF4886213A119A002F000
:1035900049F9206838B9606828B140F245420EA167
:1035A00014A002F03FF901F03CFE5020EFF311852A
:1035B00080F31188BFF34F8FBFF36F8FA16BE06B68
:1035C000884231D994F94500491CA163411C1DD0A2
:1035D000401C84F8450017E02E2E5C2E2E5C4672AF
:1035E000656552544F535C7372635C7175657565A4
:1035F0002E6300004572726F723A25732C25640D9C
:103600000A00000004ED00E001200EE0606A0028DE
:10361000E1D004F1240000F0DFFE0028DBD0002E12
:10362000D9D001203060D6E7002085F3118870BD25
:1036300030B4026C0B46002A0BD0C1681144C16043
:103640004468A14201D30168C16030BC184601F052
:1036500033BE30BC70472DE9FF4F83B09B468A468E
:1036600004004FF0000607D140F2DC42AFF29801AF
:10367000AFF2800002F0D6F8BAF1000F09D1206C49
:1036800038B140F2DD42AFF2B001AFF2980002F083
:10369000C9F800F057FF48B9059838B14FF49C625B
:1036A000AFF2CC01AFF2B40002F0BCF84FF0000969
:1036B0004FF08057DFF8848301F074FDA56B0DB3E4
:1036C00051462046E668FFF7B3FFBBF1000F11D06B
:1036D000E660606A50B104F1240000F07DFE28B17C
:1036E000C8F80070BFF34F8FBFF36F8F01F074FD08
:1036F000012096E66D1EA56320690028F6D004F12E
:103700001000EAE7059808B11EB106E001F064FD7B
:1037100027E0684600F0CEFE012601F05DFD00F0D6
:1037200053FB01F03FFD94F94400401C01D184F8A3
:10373000449094F94500401C01D184F8459001F073
:103740004BFD05A9684600F0C6FE002820460AD0B9
:10375000FFF7AEFD00F0AAFA204600F062F900285B
:10376000AAD000205DE600F05CF990B104F12400DD
:10377000059900F0D8FD2046FFF79AFD00F096FA73
:10378000002899D1C8F80070BFF34F8FBFF36F8F37
:1037900092E72046FFF78CFD00F088FA8CE72DE9D0
:1037A000F04790468946040007D14FF4B462AFF267
:1037B000D811AFF2C01002F035F8B9F1000F09D1FD
:1037C000206C38B140F2A152AFF2F411AFF2DC102C
:1037D00002F028F801F025FD5020EFF3118780F367
:1037E0001188BFF34F8FBFF36F8FA66BF6B194F9BB
:1037F000445049462046FFF71BFF761EA663681C0F
:1038000004D06D1C84F84450012010E02069002889
:10381000FAD004F1100000F0DFFD0028F4D0B8F178
:10382000000FF1D00121C8F80010EDE7002087F368
:1038300011887CE62DE9F0410E46040007D140F2E4
:10384000FC52AFF26C21AFF2542001F0EBFF4EB905
:10385000206C48B140F2FD52AFF28421AFF26C20EF
:1038600001F0E0FF206C38B940F2FE52AFF298212F
:10387000AFF2802001F0D6FF01F0D3FC5020EFF32F
:10388000118580F31188BFF34F8FBFF36F8FA06B4B
:1038900030B131462046E768FFF7CAFE0120E760F5
:1038A00085F3118864E510B5040007D140F22F625A
:1038B000AFF2DC21AFF2C42001F0B4FF01F072FCE2
:1038C000A46B01F089FC204610BD10B5040007D19F
:1038D00040F24162AFF20031AFF2E82001F0A2FF06
:1038E00001F060FCD4E90E10441A01F075FC20468A
:1038F00010BD10B5040007D140F25162AFF228317B
:10390000AFF2103001F08EFFA06B10BD4C4A0021C9
:1039100002EBC1035B68834206D1002042F831000C
:1039200002EBC10148607047491C0A29F0D3704777
:1039300010B5040007D140F25D62AFF26431AFF21E
:103940004C3001F06FFF2046FFF7E0FF2046BDE856
:10395000104001F03CBB10B5040007D140F2937257
:10396000AFF28C31AFF2743001F05CFFA06B08B1A4
:10397000002010BD012010BD10B5040007D140F299
:10398000BA72AFF2AC31AFF2943001F04BFFA06BE2
:10399000E16B884201D1012010BD002010BD10B59F
:1039A000274B002253F832401CB1521C0A2AF9D38B
:1039B00010BD43F8321003EBC201486010BD10B5D2
:1039C00000241F4A214602EBC1035B68834202D1F7
:1039D00052F8314002E0491C0A29F4D3204610BDB8
:1039E00070B515460E46044601F0DCFB94F9441010
:1039F0000020491C01D184F8440094F94510491C69
:103A000001D184F8450001F0E7FBA06B28B92A46F4
:103A1000314604F1240000F0C4FC2046BDE87040AB
:103A200046E410B5044601F0BDFBA06B20B10024B4
:103A300001F0D2FB204610BD0124F9E704ED00E0BF
:103A4000040300202DE9F041054601F0ABFBFE4EDA
:103A5000B068401CB0603068FC4F10B1706930B382
:103A60002BE03560B068012827D1002404EB8400E6
:103A700007EB8000FFF776FB641C202CF6D3F4489C
:103A8000FFF770FBF2481430FFF76CFBF04828306A
:103A9000FFF768FBEE483C30FFF764FBEC48503022
:103AA000FFF760FBEA4870631430B06305E03068EC
:103AB000E96AC06A884200D83560706A0121401CFA
:103AC0007062E86A326981401143316100EB800025
:103AD00007EB8000291DFFF753FB01F07DFB7069A8
:103AE00000280CD03068E96AC06A884207D2D949F8
:103AF0004FF080500860BFF34F8FBFF36F8FBDE86A
:103B0000F0812DE9FF5F8346DDE90E879946164671
:103B10008A46900001F0F0F905001AD04C2001F01F
:103B2000EBF9040012D025630021CDE90241CDE973
:103B300000874B4632465146584600F0CCFE2046A0
:103B4000FFF780FF012004B0BDE8F09F284601F098
:103B50003EFA4FF0FF30F6E770B5044601F022FB65
:103B6000B94D04B92C68201DFFF72EFB58B9E06A47
:103B7000B64A00EB800152F8211021B901218140A1
:103B8000286988432861A06A18B104F11800FFF77A
:103B90001BFB686A401C68622868844208D1AC48F4
:103BA000211D3C30FFF7ECFA6868401C686007E0B4
:103BB000A868401EA860204600F0DEFE00F0CFFEA0
:103BC00001F00AFB6869002812D0286884420FD1EE
:103BD000286B28B140F265429FA1A6A001F022FE09
:103BE0009C494FF080500860BFF34F8FBFF36F8F39
:103BF00070BD2DE9F041944F0026386B38B1B8699B
:103C0000401CB861F86900B10126304677E7FD68CD
:103C10006D1CFD6011D1786B006828B140F6D91297
:103C20008DA194A001F0FEFD786BB96B7963B86348
:103C3000386A401C386200F092FEB86ADFF80C82E5
:103C4000854209D3786B006880B1786BC068C4681E
:103C5000606885420DD2B8623868C06A00EB8001A6
:103C600058F821000128CDD90126CBE74FF0FF30CD
:103C7000F1E7201DFFF7A8FAA06A18B104F11800B7
:103C8000FFF7A2FAE06A01213A69814011433961E4
:103C900000EB800108EB8100211DFFF771FAE06A5B
:103CA0003968C96A8842CDD30126CBE72DE9F047B0
:103CB000654D00242746286B28B94FF4FD6266A1A4
:103CC0006CA001F0AFFD01F06DFA286B401E286377
:103CD000286BE0BBA8685E4928310126B8B3DFF83D
:103CE0006C918846D8F80010E9B1D8F80C00C46887
:103CF00004F11800FFF768FA201DFFF765FAE06A83
:103D00002A6906FA00F11143296100EB800109EBF1
:103D10008100211DFFF734FAE06A2968C96A8842E8
:103D2000E0D3EE61DEE70CB100F019FEAC693CB106
:103D3000FFF75FFF00B1EE61641EF9D10020A861BA
:103D4000E86920B1434901273807086000E003E033
:103D5000BFF34F8FBFF36F8F01F03EFA3846BDE8D7
:103D6000F0872DE9F041384E0F460446F56830687B
:103D7000001DFFF729FA38B9306890F82C1001209F
:103D80008840316981433161601C08D13FB131689D
:103D9000BDE8F0412E485030091DFFF7F1B93068F9
:103DA0002C44AC424460316805D2B06BBDE8F041B0
:103DB000091DFFF7F1B9706B091DFFF7EDF9B06A46
:103DC000844200D2B4629AE61F48016B491C016329
:103DD00070472DE9F0410E4605004FF0000405D173
:103DE00040F279421CA123A001F01CFD2EB940F243
:103DF0007A4219A11FA001F015FD134F386B28B1AD
:103E000040F27B4214A11BA001F00CFDFFF7DCFF88
:103E1000FA6828688119904202D9884202D804E0E1
:103E2000884201D8914200D9012429601CB1881A26
:103E30000021FFF796FFFFF739FF002826D105493B
:103E40004FF0805008601DE0640000205403002003
:103E5000D405002004ED00E02E2E5C2E2E5C467270
:103E6000656552544F535C7372635C7461736B731A
:103E70002E6300004572726F723A25732C25640D13
:103E80000A000000BFF34F8FBFF36F8F37E610B506
:103E9000040014D0FE49096B39B140F2CF42AFF2B1
:103EA0004801AFF2300001F0BDFCFFF78DFF0021AB
:103EB0002046FFF756FFFFF7F9FE002807D1F54926
:103EC0004FF080500860BFF34F8FBFF36F8F10BD6E
:103ED00070B5050007D140F2FB42AFF28401AFF2AA
:103EE0006C0001F09FFCEA4E3068854201D1002051
:103EF00070BD01F057F96C6901F06EF9706B844286
:103F000002D0B06B844201D1022070BDE2488442ED
:103F100004D1A86A0028F7D1032070BDDE48143808
:103F2000844202D00CB1012070BD042070BD10B5D8
:103F3000044601F037F90CB9D5480468E46A01F089
:103F40004BF9204610BD10B5044601F06AF9502027
:103F5000EFF3118180F31188BFF34F8FBFF36F8FA1
:103F60000CB9CB480468E06A81F3118810BD2DE9D3
:103F7000F04100260D460446202908D34FF4B062D4
:103F8000AFF22C11AFF2141001F04CFC1F2501F020
:103F900009F9BF4F04B93C68E06AA8423BD03968D0
:103FA000854206D98C4207D03968C96AA94202D92C
:103FB00002E08C4200D101268046E562A06900281B
:103FC00002DBC5F12000A061B44D08EB88006169F7
:103FD00005EB8000814215D1201DFFF7F5F8012186
:103FE00020B93A6901FA08F082433A61E06A3A6915
:103FF00081401143396100EB800005EB8000211DF9
:10400000FFF7BEF83EB1A3494FF080500860BFF300
:104010004F8FBFF36F8FBDE8F04101F0DDB870B591
:104020009B4D286B10B10120E86170BD0020E86154
:1040300028699A4EB0FA80F0C0F11F0000EB8004AE
:1040400056F8240038B940F6F622AFF2F411AFF278
:10405000DC1001F0E7FB06EB840000F10802416888
:1040600049684160914201D149684160C86828604F
:1040700070BD70B5044601F095F8854D04B92C6803
:10408000201DFFF7A1F858B9E06A844A00EB8001CF
:1040900052F8211021B90121814028698843286103
:1040A000A06A18B104F11800FFF78EF8211D7A48B4
:1040B000FFF766F801F090F8686928B101F072F82E
:1040C00000F04DFC01F088F82868844213D168693B
:1040D00090B1286B38B140F25762AFF28421AFF251
:1040E0006C2001F09FFB6B494FF080500860BFF3DC
:1040F0004F8FBFF36F8F70BD6748A9680068884213
:1041000002D10020286070BDBDE8704087E770B51F
:104110000025040007D140F28162AFF2C421AFF262
:10412000AC2001F07FFB5C496069884205D1A06A40
:104130002839884201D000B90125284670BD70B5E4
:1041400004002BD0524D2868844231D001F02AF867
:104150002046FFF7DCFFE8B1201DFFF735F8E06AE5
:1041600001212A698140114329614C4900EB8000FB
:1041700001EB8000211DFFF703F8E06A2968C96A96
:10418000884207D343494FF080500860BFF34F8FF8
:10419000BFF36F8FBDE8704001F01EB840F2AB6214
:1041A000AFF24C31AFF23430BDE8704001F03ABBB1
:1041B00070BD2DE9F0410026040007D140F2E26213
:1041C000AFF26C31AFF2543001F02CFB01F029F862
:1041D0005020EFF3118580F31188BFF34F8FBFF3A9
:1041E0006F8F2046FFF793FFF0B1294F386B20B156
:1041F000294804F11801283814E0E06A3968C96ACE
:10420000884200D30126201DFEF7DEFFE06A01216F
:104210003A69814011433961204900EB800001EB8C
:104220008000211DFEF7ACFF85F31188304666E45F
:104230001A4E4FF08054174D00F0A8FB306801284B
:10424000FAD92C60BFF34F8FBFF36F8FF4E71CB523
:104250000F4800242C30CDE900402346802210A1D5
:104260001148FFF74EFC012803D100F09DFC012806
:104270000CD0401C2BD140F28472AFF22441AFF23B
:104280000C4002B0BDE8104001F0CCBA50200DE067
:104290006400002004ED00E0240600205403002008
:1042A00049444C45000000003142000880F3118869
:1042B000BFF34F8FBFF36F8FF8484FF0FF3181622C
:1042C00001214161C460BDE81C4000F029BF1CBD54
:1042D000502080F31188BFF34F8FBFF36F8FEF49EA
:1042E0000020486100F052BFEC48C068704710B52C
:1042F00000F097FFE948C06810BDE8488068704743
:1043000010B510B104461CB10AE0E4480468FAE7AD
:1043100040F68C02AFF2C041AFF2A84001F082FA41
:1043200004F1340010BD70B50D46040007D140F60D
:104330000632AFF2DC41AFF2C44001F073FAD74865
:10434000016820461831FEF727FF2846BDE8704077
:10435000012106E52DE9F04117460E46050007D17B
:1043600040F61732AFF21051AFF2F84001F05AFAAE
:10437000CA4C206B38B940F61B32AFF22451AFF271
:104380000C5001F04FFA216846F000408861216826
:1043900028461831FEF7F4FE3846BDE8F041012109
:1043A000DFE470B514460E46050007D140F6313201
:1043B000AFF25C51AFF2445001F034FAB7480168F3
:1043C00028461831FEF7DCFE0CB14FF0FF362146CF
:1043D0003046BDE87040C4E42DE9F041C068C468CF
:1043E0003CB940F66132AFF29051AFF2785001F033
:1043F00019FA04F118000746FEF7E6FEA74D286BF0
:10440000012658B13946A648FEF7BAFEE06A296887
:10441000C96A884212D90120EE61D4E4201DFEF75A
:10442000D3FEE06A2A6906FA00F1114329619D4929
:1044300000EB800001EB8000211DE5E70020C2E4D5
:1044400070B5964D06460C46286B38B940F6993241
:10445000AFF2FC51AFF2E45001F0E4F944F0004057
:104460003060F4683CB940F6A132AFF21461AFF2AB
:10447000FC5001F0D7F93046FEF7A6FE201DFEF7EE
:10448000A3FEE06A01262A6906FA00F111432961B8
:10449000844900EB800001EB8000211DFEF770FED7
:1044A000E06A2968C96A884202D90120EE6170BDBC
:1044B000002070BD10B5040007D140F6C132AFF244
:1044C0006861AFF2506001F0ADF97448016A216093
:1044D000C068606010BD70B50D46040007D140F69D
:1044E000CB32AFF28C61AFF2746001F09BF93DB951
:1044F00040F6CC32AFF2A061AFF2886001F092F9E1
:1045000000F050FE654AD06829684B1C0FD0236824
:10451000126A934202D0626882420AD96268801AA3
:10452000884206D2081A28602046FFF7C3FF0024FD
:1045300000E0012400F050FE204670BD57490120E4
:10454000C86170475548416919B1006B18B1002026
:1045500070470120704702207047504908680A6878
:104560008069D26A0968C2F120028A61704770B519
:104570000C46064600F016FE484D2868406C80B98F
:104580002968012081F848005CB101212046FFF72D
:10459000E8FB45494FF080500860BFF34F8FBFF3F1
:1045A0006F8F00F019FE00F0FDFD2868446C0020BC
:1045B00034B116B12968486402E02A68611E51646A
:1045C000296881F8480000F007FE204670BD2DE9FB
:1045D000F0411E4615468846074600F0E3FD2F4C85
:1045E000206890F84800022814D02068416CB94334
:1045F00041642168012081F848005EB10121304604
:10460000FFF7AFFB28494FF080500860BFF34F8F92
:10461000BFF36F8F00F0E0FD00F0C4FD15B120681E
:10462000406C2860206890F8480001280DD0206870
:10463000416C21EA0801416401252168002081F8CC
:10464000480000F0C9FD284620E40025F5E72DE9E3
:10465000F0411F4690460D4604004FF0010607D179
:1046600041F2FD02AFF61001AFF2F87001F0DAF896
:1046700000F098FD0FB1606C386094F8480002219A
:1046800084F84810B8F1050F17D2DFE808F01603D8
:104690000F151300616C29430AE00000640000203C
:1046A000FC0500205403002004ED00E0616C491C6F
:1046B000616402E0022803D06564012802D02AE088
:1046C000002628E0201DFEF77FFDC34DE06A012192
:1046D0002A69814011432961C04900EB800001EB48
:1046E0008000211DFEF74CFDA06A38B141F2351261
:1046F000AFF69C01AFF6840001F094F8E06A2968F7
:10470000C96A884207D9B6494FF080500860BFF3A4
:104710004F8FBFF36F8F00F05FFD304687E52DE9C7
:10472000F0471F46DDF8209092460D4604004FF0FA
:10473000010807D141F26812AFF6E401AFF6CC00F0
:1047400001F070F800F06DFD5020EFF3118680F35A
:104750001188BFF34F8FBFF36F8F0FB1606C38605C
:1047600094F84800022184F84810BAF1050F0ED2DF
:10477000DFE80AF00D03060C0A00616C294301E032
:10478000616C491C616402E0022803D06564012861
:1047900003D031E04FF000082EE0A06A38B141F2BA
:1047A000AF12AFF64C11AFF6341001F03BF88A4D62
:1047B000286B012778B104F118018A48FEF7E0FC64
:1047C000E06A2968C96A884216D9B9F1000F12D087
:1047D000C9F8007010E0201DFEF7F6FCE06A2A69B7
:1047E00007FA00F11143296100EB80017B4800EBDF
:1047F0008100211DE2E7EF6186F311884046BDE8A4
:10480000F0872DE9F0418846040007D141F2E31218
:10481000AFF6BC11AFF6A41001F004F800F001FDF2
:104820005020EFF3118780F31188BFF34F8FBFF350
:104830006F8F94F84800022184F84810616C491C7D
:10484000616401282ED1A06A38B141F20922AFF685
:10485000F811AFF6E01000F0E5FF5F4D286B012680
:1048600078B104F118015F48FEF78AFCE06A296814
:10487000C96A884216D9B8F1000F12D0C8F8006092
:1048800010E0201DFEF7A0FCE06A2A6906FA00F19C
:1048900011432961514900EB800001EB8000211D8B
:1048A000E2E7EE6187F31188C1E410B558B1044620
:1048B00000F078FC94F84800022807D0002400F0AB
:1048C0008BFC204610BD44480468F1E7002084F8C2
:1048D00048000124F3E72DE9F0470E46DDE909849D
:1048E00082466FF00301206B01EB82010844089DB2
:1048F00020F007079946780705D040F22B323AA1FD
:1049000040A000F08FFF00202218315C82F83410A4
:10491000315C11B1401C1028F6D3002684F84360A6
:10492000202D00D31F25201DE562FEF726FC04F193
:104930001800FEF722FC2461C5F120006462A0612A
:10494000666484F848604A465146384600F0CBFB1E
:104950002060B8F1000F01D0C8F800404FE71E48B2
:10496000416B096829B1416BC968C96849688162AE
:1049700070474FF0FF31FAE710B50446006B00F0C6
:1049800026FB2046BDE8104000F021BB70B5154E57
:10499000114D14361CE0FFF717FA306820B10024DF
:1049A000FFF784F9A4B901E00124F9E700F0FAFB6C
:1049B000F068C468201DFEF707FCA868401EA860C8
:1049C0006868401E686000F007FC2046FFF7D4FFCF
:1049D00068680028DFD170BD640000205403002007
:1049E00004ED00E0FC0500202E2E5C2E2E5C4672AD
:1049F000656552544F535C7372635C7461736B737F
:104A00002E6300004572726F723A25732C25640D77
:104A10000A00000070B500244160FF4D0061914222
:104A200006D8D11A8269914206D2011D286907E091
:104A30009A4203D2994201D3012403E0011DE868A0
:104A4000FEF7AAFB204670BD2DE9FE4F9946DDF822
:104A500030A090460D4606004FF0000705D14FF4F8
:104A6000D372EEA1F4A000F0DDFEEB4C206880B123
:104A7000CDE900580296062D10DAFFF763FD0228F3
:104A80004FF0000308D0002269462068FEF772FC50
:104A900007463846BDE8FE8F5246F5E700234A46F2
:104AA0006946FEF70DFDF3E730B585B0DA4D41E01C
:104AB000019800283EDB039C606910B1201DFEF7C1
:104AC00083FB04A800F014F9024601980A2831D2A9
:104AD000DFE800F005050530252D05053025029895
:104AE000A169034601442046FFF794FF10B3616AB1
:104AF00020468847E06901281CD1002000900298D8
:104B0000A1690023421819462046FFF79DFF88B986
:104B100040F22132C1A1C8A000F084FE0AE0029850
:104B2000A061811813462046FFF774FF02E020467B
:104B300000F04DFA00231A4601A92868FEF78BFD04
:104B40000028B5D105B030BDB34CE068016839B17B
:104B5000002139B1002000F0DDF8FFF7A5FFF4E7F0
:104B60000121F6E7C0680068F5E710B500F01AFB10
:104B7000A94C2068A0B9B448FEF7F4FAB248143042
:104B8000FEF7F0FAB048E0601430206100220C21FA
:104B90000A20FEF76BFB206010B1ACA1FEF7FFFE10
:104BA000BDE8104000F018BB1CB50024FFF7DDFF86
:104BB0009948006868B198491F20091DCDE9000196
:104BC00000234FF48072A3A1A448FEF79AFF0400CB
:104BD00005D140F2331291A197A000F023FE2046A8
:104BE0001CBD2DE9F0470746994616460D4628207C
:104BF000DDF820A000F080F9040014D0B8464F463C
:104C0000D1462DB94FF4C67295A19CA000F00AFEC2
:104C1000FFF7ABFF04F11801C4F8008081E8E0025F
:104C2000201DFEF7AAFA2046BDE8F08710B57A4CA1
:104C3000606828B94FF4E87278A17FA000F0F2FD17
:104C4000606810BD10B5040005D140F2D91273A1FF
:104C500079A000F0E7FDA06910BD10B5040005D1F2
:104C600040F2E3126DA174A000F0DCFD606810BD9D
:104C700010B5040005D140F2ED1268A16EA000F05D
:104C8000D1FD206810BD10B5040005D140F2DA3224
:104C900062A169A000F0C6FD00F084FA606908B165
:104CA000012400E0002400F097FA204610BD10B562
:104CB000040005D140F2EF3258A15FA000F0B2FD30
:104CC00000F070FA246A00F087FA204610BD70B533
:104CD0000D46040005D140F2FF3250A156A000F06D
:104CE000A1FD00F05FFA2562BDE8704000F074BAE3
:104CF00070B50546FFF7F8FA474E0446B06884429F
:104D000003D200F038F8012000E00020286020469F
:104D1000B46070BDF8B50D460646FFF755F8684615
:104D2000FFF7E6FF0446009810B1FEF7BFFFF8BD9D
:104D30003948ADB101690968D9B10025311B2A464E
:104D40000068FEF74DFEFEF7B1FF0028EFD14F4996
:104D50004FF080500860BFF34F8FBFF36F8FF8BDE7
:104D6000A642EBD8FEF7A2FF2146304600F034F809
:104D7000F8BD0125E2E7F8B5274E25E0C068C46814
:104D80000568201DFEF720FA616A20468847E06921
:104D9000012819D1A0692844A84206D9246160607D
:104DA000211DF068FEF7F8F90EE0002003460146E9
:104DB00000902A462046FFF747FE28B940F292327B
:104DC00027A12EA000F02EFDF06801680029D5D1A2
:104DD0003169C6E90310F8BDF8B505460E480E4620
:104DE000C068C068C468201DFEF7EEF9E0690128BC
:104DF00057D1A0692B46411932462046FFF70AFEDB
:104E000040B100200346014600902A462046FFF7A5
:104E10001BFE3DE045E00000A00000202E2E5C2E91
:104E20002E5C4672656552544F535C7372635C74BA
:104E3000696D6572732E63004572726F723A2573E5
:104E40002C25640D0A00000038060020546D7251B4
:104E500000000000546D722053766300494B000837
:104E60002E2E5C2E2E5C4672656552544F535C7339
:104E700072635C74696D6572732E63004572726F44
:104E8000723A25732C25640D0A00000004ED00E041
:104E900038B94FF40272AFF23801AFF2200000F0DF
:104EA000C1FC616A01B02046BDE8F040084700003F
:104EB00030B5744900E011460A688242FBD34B6862
:104EC0005C18844203D1406818444860084643682F
:104ED0001C18944209D16B4C103C2468A24209D0A2
:104EE00052681A4442600A6812680260814200D027
:104EF000086030BD0460F9E72DE9F0410546002661
:104F0000FEF762FF5F4F103F386808B900F098F86D
:104F1000F86805424ED1002D4CD0083568070BD0FB
:104F200005F00700C0F108000544680704D0BF225F
:104F300055A15FA000F076FC002D3BD0786885423B
:104F400038D850490846046801E0214604466068A4
:104F5000A84202D220680028F7D13868B8468442B7
:104F600028D00E682068086060680836401B10284A
:104F70000ED96719780704D0EC2243A14CA000F0A9
:104F800051FC6068401B786038466560FFF790FF11
:104F90006168D8F804004246401AC8F80400D8F8FE
:104FA0000830984200D29060D8F80C0001430020ED
:104FB000C4E90001FEF77AFE700705D04FF496723F
:104FC00031A13BA000F02EFC3046BDE8F08170B569
:104FD00000282BD02B4DA0F10804103D6068E96833
:104FE000084205D14FF4A07227A131A000F01AFCAD
:104FF000206828B140F2411223A12DA000F012FC3C
:105000006068E968084211D02268002A0ED18843FE
:105010006060FEF7D9FE60686968084468602046F1
:10502000FFF746FFBDE87040FEF740BE70BD154873
:1050300010384068704713481038806870477047D0
:105040001F484FF48041420706D0C01D1C4920F084
:105050000700411AC1F580410A4A00230144C2E910
:1050600000030839103A21F0070111604B600B6012
:105070000B1AC0E9001393604FF000405360D060FA
:1050800070470000C40000202E2E5C2E2E5C46725D
:10509000656552544F535C706F72745C4D656D4D15
:1050A000616E675C686561705F342E6300000000AC
:1050B0004572726F723A25732C25640D0A00000048
:1050C0006006002069484068401C04D0F42268A1B2
:1050D00071A000F0A7FB502080F31188BFF34F8F21
:1050E000BFF36F8FFEE710B5031F4FF080741C6095
:1050F0001B1F21F001011960191F6B4B0B60143944
:1051000040380A6010BD69484FF47A710068B0FBFE
:10511000F1F14FF0E020491E416107210161704724
:105120001CB5634908780190FF20087008788DF855
:1051300000009DF800004D4A00F05000107007205C
:10514000906007E09068401E90609DF8000040006D
:105150008DF800009DF800000006F3D4107A0002DC
:1051600000F4E0609060019808705248016841F4D2
:1051700070010160016841F070410160FFF7C3FFF9
:1051800000205060FAF7CEFF00201CBD3748406871
:10519000B0F57A7F05D04FF4B57235A13EA000F08E
:1051A00041BB7047502080F31188BFF34F8FBFF38E
:1051B0006F8F2E494868401C486001280BD13D483C
:1051C0001C38006810F0FF0F05D04FF4BD7228A105
:1051D00031A000F027BB704710B5244C606828B997
:1051E00040F2811222A12CA000F01CFB6068401E3E
:1051F000606001D180F3118810BD10B5502080F39C
:105200001188BFF34F8FBFF36F8FFEF7F2FC20B111
:1052100028494FF080501C390860002080F3118825
:1052200010BD10B5FAF7B4FF104C10280CD300F1E4
:10523000E02090F8F0032178884205D24FF42A72DA
:105240000BA115A000F0EEFA1A4814380068A16806
:1052500000F4E060884207D9BDE810404FF42E7298
:1052600003A10DA000F0DEBA10BD0000CC000020AC
:105270002E2E5C2E2E5C4672656552544F535C7028
:105280006F72745C525644535C41524D5F434D33D0
:105290005C706F72742E63004572726F723A257380
:1052A0002C25640D0A000000C550000800000020F5
:1052B00000E400E020ED00E040EA01039B0703D09A
:1052C00009E008C9121F08C0042AFAD203E011F845
:1052D000013B00F8013B521EF9D27047D2B201E007
:1052E00000F8012B491EFBD270470022F6E710B5EB
:1052F00013460A4604461946FFF7F0FF204610BD44
:1053000030B480EA010202F0004530F0004221F0A2
:10531000004013D090B1C30DD40DC2F31601C0F3F9
:105320001600E41A41F4000140F400027D34914279
:1053300001D3641C00E04900002C02DA30BC0020DC
:1053400070474FF400000023914201D3891A0343B0
:1053500040084FEA4101F7D151B1914202D14FF0DB
:10536000004105E002D24FF0010101E06FF00101C0
:1053700003EBC450284430BC00F09DB9420005D076
:10538000C0F3C7525242914201DC0020704700EB4B
:10539000C15070472DE9FE4F81EA030404F0004438
:1053A00021F0004100944FF0000B23F0004350EA3D
:1053B00001045ED052EA03045BD0C3F30A54C1F384
:1053C0000A552C44A4F2F3340194A0FB0254C1F317
:1053D000130141F48011C3F3130343F4801301FB61
:1053E000024400FB034E840A970A44EA815447EAC8
:1053F0008357A4FB076802958D0A05FB07854FEAD2
:10540000932C04FB0C542705029D4FEA065847EAEB
:105410001637B5EB08056EEB070C870E920E47EAC0
:10542000811742EA8312A7FB0201B6EB0B0164EB82
:1054300000042B0D43EA0C335E1844EB1C50DA4693
:105440005146E7FB0201C5F313044FEA0B3343EA6D
:1054500014534FEA0432019C43EA0603A4F10C04FE
:105460000294009CCDE900B400F06BF903B0BDE8F4
:10547000F08F00200146F9E72DE9F04D81EA0304A1
:1054800004F0004B21F0004514464FF0000A23F0D1
:10549000004150EA050220D054EA01021DD0C5F3B4
:1054A0000A570246C5F31303C1F31300C1F30A56AA
:1054B00040F4801543F48013A7EB0608101BD64672
:1054C00008F2FD3873EB050002D308F1010801E092
:1054D00092185B41B8F1000F03DA00200146BDE8E5
:1054E000F08D00204FF48011064684460EE0171B15
:1054F00073EB050705D3121B63EB050306434CEA68
:10550000010C49084FEA300092185B4150EA01074C
:10551000EDD152EA030012D082EA040083EA0501C9
:10552000084305D0101BAB4106D20122002306E040
:1055300000224FF0004302E06FF0010253101AEB1B
:1055400006004CEB085110EB0A0041EB0B01BDE8E3
:10555000F04D00F0E7B8C10F80EAE0700844CA07D8
:105560009623002100F0B0B896230022114600F0E7
:10557000ABB8C1F30A5210B5C1F3130140F2FF33C7
:1055800041F480119A4201DA002010BD40F2334309
:105590009A42A2F2334203DC524200F07CF810BD82
:1055A000904010BD00F0004230F000400AD0C10D24
:1055B00001F56071C0F3160042EA0151C2084007CC
:1055C00011437047002001467047000030B5041EAB
:1055D00071F1000404DB4FF00044404264EB010130
:1055E000141E73F1000405DB1C464FF000435242C9
:1055F00063EB0403994208BF904230BD01F00043C1
:1056000030B421F0004150EA010206D00A0DA2F5A3
:105610006072C1F31301002A02DC30BC0020704725
:10562000440F44EAC104C100E01830BC00EBC25092
:1056300000F041B82DE9F05F0546002092469B46F8
:1056400088460646814640241BE028464146474698
:10565000224600F020F853465A46C01A914110D312
:1056600011461846224600F0CDF82D1A67EB0108C6
:105670004F4622460120002100F0C4F817EB000934
:105680004E41201EA4F10104DFDC484631462A4683
:105690004346BDE8F09F202A04DB203A21FA02F0BD
:1056A0000021704721FA02F3D040C2F1200291405C
:1056B0000843194670470029A8BF7047401C49009D
:1056C00008BF20F00100704710B4B0FA80FC00FA67
:1056D0000CF050EA010404BF10BC704749B1CCF192
:1056E000200421FA04F411FA0CF118BF012121431E
:1056F0000843A3EB0C01CB1D4FEA00614FEA1020D9
:1057000042BF002010BC704700EBC350104400297A
:10571000A4BF10BC7047401C490008BF20F0010026
:1057200010BC704710B5141E73F1000408DA401C59
:1057300041F1000192185B411A4301D120F00100B0
:1057400010BD2DE9F04D92469B4611B1B1FA81F2A0
:1057500002E0B0FA80F22032904600F053F804469E
:105760000F4640EA0A0041EA0B0153465A460843F5
:1057700013D0114653EA010019D0C8F14002504637
:10578000FFF789FF05460E4650465946424600F04F
:1057900039F8084305D0012004E020463946BDE829
:1057A000F08D0020054346EAE0762C4337430A9803
:1057B0006305E40AA0EB08000022FD0A44EA47540E
:1057C0000A3002D500200146E9E7010510196941B8
:1057D000DDE9084500196941BDE8F04DA2E7000088
:1057E000064C074D06E0E06840F0010394E807002E
:1057F00098471034AC42F6D3FAF77CFCC85C00083A
:10580000E85C0008202A04DB203A00FA02F10020BC
:1058100070479140C2F1200320FA03F319439040EE
:10582000704700000FB4054B10B503A9044A029855
:1058300000F018F810BC5DF814FB0000872C00087D
:10584000D800002002E008C8121F08C1002AFAD1BF
:1058500070477047002001E001C1121F002AFBD1F0
:10586000704700002DE9FF4F8DB00F46054600261A
:1058700006E025280BD0DDE90F1290476D1C761C41
:1058800028780028F5D111B03046BDE8F08F00240B
:10589000A246A1460122EC4900E0044315F8013F6D
:1058A000203B02FA03F00842F7D128782A2810D0CA
:1058B0006FF02F022878A0F13001092914D80AEBE3
:1058C0008A0102EB410144F0020400EB010A6D1C65
:1058D000F0E701CF5FEA000A03D544F40054CAF1AF
:1058E000000A44F002046D1C28782E2817D115F800
:1058F000010F44F004042A280ED06FF02F022878FC
:10590000A0F1300109290AD809EB890102EB410114
:1059100000EB01096D1CF2E757F8049B6D1C287819
:105920006C280FD006DC4C2817D068280DD06A28C8
:1059300014D104E0742810D07A280FD10DE044F47B
:1059400000140AE044F4801401E044F4401469783F
:10595000814202D104F580146D1C6D1C2A786E2AD8
:105960001FD00CDC632A31D004DC002A8BD0582AEB
:1059700011D1A3E0642A68D0692A0CD165E0732AAA
:105980002ED004DC6F2A73D0702A04D19BE0752AD4
:105990006FD0782A6ED01046DDE90F129047761C42
:1059A00050E1C4F30250022806D0032809D004288D
:1059B00001CF09D0066045E101CFF117C0E90061D0
:1059C00040E101CF06803DE106703BE117F8040B92
:1059D0008DF8000000208DF80100EB46012003E067
:1059E00057F804BB4FF0FF3061074FF0000102D4BD
:1059F0000DE008F10101884649450FDA8045F8DBE2
:105A00001BF808100029F4D108E008F101018846CC
:105A10008142FADB1BF808100029F6D1DDE90F23DB
:105A2000AAEB08008146214600F036F9304400EB2D
:105A3000080604E0DDE90F121BF8010B9047B8F1EE
:105A40000108F7D221464846F7E00A21C4F3025381
:105A50004FF0000B0891022B04D001CFC117032B8C
:105A600009D00AE0FF1D27F00707F7E8020108E068
:105A700032E01FE020E000B2C117042B01D140B298
:105A8000C117031E71F1000307DA4FF0000CD0EBD1
:105A90000C006CEB01012D2302E0230504D52B2320
:105AA0008DF82430012303E0E30701D02023F7E73A
:105AB000984658E00A2110E010210EE010204FF027
:105AC000000B08900CE010214FF0000B44F0040490
:105AD0004FF00809089103E008214FF0000B0891EE
